:020000040800F2
:100000000080012055B10008A5B10008A5B1000885
:10001000A5B10008A5B10008A5B1000800000000C6
:10002000000000000000000000000000A5B1000872
:10003000A5B1000800000000A5B100084320000899
:10004000A5B10008A5B10008A5B10008A5B1000838
:10005000A5B10008A5B10008792200088322000894
:100060008D22000897220008A1220008A5B10008EF
:10007000A5B10008A5B10008A5B10008A5B1000808
:10008000A5B10008A5B10008A5B10008A5B10008F8
:10009000A5B10008A5B10008A5B10008AB22000871
:1000A0001D8500084984000831850008698400081E
:1000B0007D84000891840008A584000819120008B6
:1000C000291200083912000849120008A5B10008D9
:1000D000A5B1000869310008813100089931000894
:1000E000C1220008A5B10008A5B10008A5B100080B
:1000F000F5840008A5B1000809850008A5B100082D
:10010000A5B10008A5B10008B9840008A5B1000890
:10011000B1310008C9310008CD840008E18400082D
:10012000A5B10008A5B10008A5B10008A5B1000857
:10013000A5B10008A5B10008A5B10008A5B1000847
:10014000A5B10008A5B10008A5B10008A5B1000837
:10015000A5B10008A5B10008E1310008A5B100086B
:100160005912000869120008A5B10008A5B10008DD
:10017000A5B10008A5B10008A5B100080000000065
:08018000A5B10008A5B10008BB
:10019000034613F8012B002AFBD1181A01387047C7
:1001A00001F0FF01102A2BDB10F0070F08D010F828
:1001B000013B013A8B422DD010F0070F42B3F6D12C
:1001C000F0B441EA012141EA014122F007047FF045
:1001D00000070023F0E80256083C85EA010586EA9C
:1001E000010685FA47F5A3FA87F586FA47F6A5FAD8
:1001F00087F68EB9EED1F0BC01F0FF0102F00702E4
:1002000032B110F8013B013A83EA010313B1F8D18E
:100210000020704701387047002D06BF354603386F
:10022000073815F0010F07D1013015F4807F02BFA8
:10023000013015F4C03F0130F0BC0138704700BFF9
:1002400053B94AB9002908BF00281CBF4FF0FF313D
:100250004FF0FF3000F00CB8ADF1080C6DE904CEA2
:100260000CF0E4FFDDF804E0DDE9022304B07047A0
:10027000704700BF10B5054C237833B9044B13B158
:100280000448AFF300800123237010BDA4010020B7
:100290000000000004D5000808B5034B1BB103495A
:1002A0000348AFF3008008BD00000000A801002053
:1002B00004D50008012800D070474FF6FF7399421B
:1002C000FAD100B583B033230093C222C32106487C
:1002D0000BF024F8054800F0B5FA05480AF0CCF90F
:1002E00003B05DF804FB00BFC0010020280300201C
:1002F0004803002010B58AB006224FF4E1313F4890
:100300000BF016FA01211C200BF0E4FD01211D2049
:100310000BF0E0FD0121C4200BF0DCFD0C200BF004
:1003200087FD0121C4200BF04FFE01200BF0CEFE13
:10033000C42133480AF014FA08BB01211D200BF038
:1003400043FE304B1B7813BB2E4B1B7823B12E483A
:100350000AF0DDF9002836D101211D200BF034FE12
:100360002A4C2B4A2B4920460AF09AFD01212046AF
:100370000AF0D2FD284800F0E1FA0AB010BD0021D1
:100380001D200BF021FE1F4B01221A70D9E7172305
:10039000224A1B4901A80AF095FA1B4A029B5360A6
:1003A000039B9360049BD36005A90C23103204E0E7
:1003B00011F8010B02F8010B013B002BF8DA124B8C
:1003C000099A1A62C0E710480AF07CF9092808D98E
:1003D0000D4C20460AF076F9014620460AF060F9F5
:1003E00008E0094C002120460AF05AF90C49204641
:1003F0000BF03CFA04480AF07EF9B1E7C001002096
:10040000A809002040030020480300200C0A002017
:10041000C0E0F30140420F002803002058D5000837
:1004200060D5000810B5002413E00B4B185D0BF0ED
:1004300027FD07EE900AF8EE677A9FED087A67EEDF
:10044000877AFDEEE77A064B17EE902A23F8142000
:100450000134092CE9DD10BD00D60008FF3F4E3FF6
:100460001403002008B54FF6FF710120FFF722FFAB
:1004700008BD00002DE9F041B2B0FFF7D3FF8F4C6B
:1004800021468F4800F02FFAA2888E4B9B889A4213
:1004900040F0AA80894A538911885088948803942F
:1004A0000290019100931389D28887490BA80BF021
:1004B000A3FF0BA914A80BF0AEFA14A983480BF004
:1004C000B4F914A80BF05FFA0BF0FCFD804B1C682C
:1004D000041BB4F57A7F01D340F2E7347B4D22460A
:1004E0007C4928460BF0E3F97B49B1F90430B1F9B6
:1004F0000620B1F90800B1F90A60B1F90C70B1F940
:100500000EC0B1F910E0B1F91280CDF81C80CDF821
:1005100018E0CDF814C0049703960290019200935E
:10052000B1F90230B1F900206C4928460BF0BFF94F
:100530006B4B1B78002B00F094806A480AF0E7F8B8
:1005400000286ED05D4A538911885088958803959C
:100550000290019100931389D2885B490BA80BF09C
:100560004BFF0BA917A80BF056FA5E4D17A92846AA
:100570000BF05BF917A80BF006FA224655492846FE
:100580000BF095F9544AB2F90430B2F90610B2F9F9
:100590000800B2F90A40B2F90C60B2F90E70B2F973
:1005A00010C0B2F912E0CDF81CE0CDF818C00597E4
:1005B00004960394029001910093B2F90230B2F9CB
:1005C0000020464928460BF072F900211D200BF04F
:1005D000FBFC454A138801339BB21380322B44D96C
:1005E000284609F0EFFF40E00BF06CFD384B186037
:1005F0000BAB94E8070083E80700BDF82C20314BD3
:100600001A80BDF82E205A80BDF830209A80BDF89F
:100610003220DA80BDF834201A81BDF836205A81A4
:1006200038E71723314A32490BA80AF04BF92D4A13
:100630000C9B53600D9B93600E9BD3600FA90C2302
:10064000103204E011F8010B02F8010B013B002B02
:10065000F8DA244B139A1A6201211D200BF0B4FC26
:1006600003E001211D200BF0AFFC1C200BF0EAFC85
:10067000B0FA80F149091C200BF0A6FC1D480AF0D5
:1006800035FC12480AF08FFD182802DC32B0BDE8B4
:10069000F0810E4908A80BF05DF917491AA80BF074
:1006A000BAF91AA908A80BF054FA04461AA80BF0D4
:1006B0006AF91CBB08A80BF066F9E7E70C000020FC
:1006C0002803002000000020A4D50008C00100205D
:1006D00044030020C4D5000814030020CCD5000832
:1006E00040030020480300206C03002058D5000878
:1006F000A80900200C0A0020F8D500080A9B062251
:1007000008A91DA80BF030FA1DA908A80BF0C8F91C
:100710001DA80BF038F9304B0BAC93E8070084E8C8
:1007200007000423002208A920A80BF01DFA20A826
:100730000BF042FAADF8320020A80BF024F90723A1
:10074000052208A923A80BF00FFA23A80BF034FA0E
:10075000ADF8340023A80BF016F90A23082208A9E3
:1007600026A80BF001FA26A80BF026FAADF8360001
:1007700026A80BF008F90D230B2208A929A80BF0D5
:10078000F3F929A80BF018FAADF82C0029A80BF002
:10079000FAF810230E2208A92CA80BF0E5F92CA8D2
:1007A0000BF00AFAADF82E002CA80BF0ECF813238E
:1007B000112208A92FA80BF0D7F92FA80BF0FCF9EC
:1007C000ADF830002FA80BF0DEF894E80E000348D7
:1007D00000F066F86EE700BF1CD500082803002073
:1007E00038B504460D46012805D01CB94FF6FF73F5
:1007F0009D420AD038BD4FF6FF739942F5D11822B9
:1008000019210C4800F02AFEEFE70A4B0A4A1A6049
:10081000D3F8DC301BB10948032201469847054B49
:10082000D3F8CC30002BE5D0054803220146984789
:10083000E0E700BF70030020ACD6000844040020AD
:10084000340400200022028042808280C280028123
:100850004281828102610275427582757047CB8840
:10086000B3F5FF6F02D340F2E473CB800B890C2BFE
:1008700001D901230B814B891F2B01D901234B8106
:100880000B88172B01D900230B804B883B2B01D9F8
:1008900000234B808B883B2B01D900238B80704732
:1008A00010B58AB004460DF1140C8CE80E006146B8
:1008B000FFF7D5FF9DF8183002939DF8163001938D
:1008C0009DF8143000939DF81E309DF81C20BDF853
:1008D0001A1008A80AF0D4F908A904F110000AF0C7
:1008E00099F80AB010BD30B583B005460C4600F14A
:1008F000100168460AF000F99DF8003003F5FA632C
:10090000E3809DF8013023819DF8023063819DF8DA
:10091000033023809DF8043063809DF80530A38068
:1009200021462846FFF79BFF03B030BD08B50146BE
:1009300001480AF09BFF08BDC001002010B582B03D
:1009400000F110040B4920460AF047F820460AF04F
:100950005AF808B902B010BD0748FFF7E7FF074A89
:10096000074968460AF09FF9694620460AF052F89E
:10097000F0E700BF700300200CD6000838D600084E
:1009800044D6000808B54FF6FF710120FFF728FF95
:1009900008BD08B54FF6FF710020FFF721FF08BD25
:1009A0002DE9F04F95B0022900F2108189468B4A5B
:1009B00052F83120824251D0884A42F83900884AA0
:1009C00002EB5001B1FBF0F403948649C9EBC90076
:1009D00001EB800351F8201002EB5102B2FBF1F25F
:1009E0000692B3F818E09A897244323A997EC81C8C
:1009F00004FB10250E95DA89B3F81680A2EB0802E5
:100A0000A2F58272081D00FB142210921B8A434437
:100A10001393002D2BDD109B002B2BDD039B03FB81
:100A200001F30493C9EBC9036E4A02EB83025368D6
:100A30006B49B1FBF3FA9368B1FBF3FB069B05939B
:100A40000023089310220A9212934FF0FF33099368
:100A50005546C246C846D946F346B1E05F4A02EB66
:100A6000C10253680993002B40F0B380A4E7002330
:100A70000E93D0E700231093D0E7A91A1DE00133AD
:100A80009BB2FF2B38D8019303FB0001394431445A
:100A9000621852445A449145F1D89645EFD3C8EBB9
:100AA000C80C504D05EB8C05AD8A8D42E7D8039DEF
:100AB0008D42E4D2069D511BDFD4059A9142DED2CD
:100AC0000B9A150505F470050C9A45EA0275079A0C
:100AD000120402F470221543019A120292B22A43C0
:100AE0009DF80850154309953C4A02EBC802556031
:100AF000089A0A920591C2E77546029B01339BB2A0
:100B00000293029BFF2B1CD8049B03F1320602992F
:100B100001FB000403994F0004EB41043444C8EB8B
:100B2000C802304B03EB82035B8AA342E5D2A4F1F7
:100B30003203049A9B1AB1EB930FDED20023AE4628
:100B40009FE70D9B0133DBB20D930D9B0F2B1BD841
:100B50000D9B07930F9A03FB02F3039901FB03F329
:100B60000E989842EDD810989842EAD30A9B0898BC
:100B70008342E6D0129B01331293072B29D801FB45
:100B800002F000230293BCE7119B0133DBB2119307
:100B9000119B0F2B10D8119B0B93089A0C920132CA
:100BA0000F9203FB0223039A02FB03F3139A9A4268
:100BB000EAD800230D93C8E7089B0133DBB2089302
:100BC000089B0F2B05D800231193E1E74FF0FF336B
:100BD0000993099815B0BDE8F08F00BF54040020B8
:100BE00000CA9A3B50D6000810B50446314B9842D3
:100BF00007D00020304B9C4220D0304B9C423AD052
:100C000010BD402005F038FE0028F3D100F18043EC
:100C100003F50433D3F8883003F44053B3F5805F11
:100C200004D0B3F5005F07D01BB1FEE7244B186872
:100C3000E0E705F0DFF9DDE72248DBE7802005F09B
:100C40001BFE0028D9D100F1804303F50433D3F80B
:100C5000883003F44043B3F5804F04D0B3F5004F20
:100C600007D01BB1FEE7164B1868C6E705F0C2F9BE
:100C7000C3E71448C1E74FF4807005F0FDFD00287C
:100C8000BED100F1804303F50433D3F8883003F478
:100C90004033B3F5803F04D0B3F5003F07D01BB11C
:100CA000FEE7074B1868ABE705F0A4F9A8E705488D
:100CB000A6E700BF0054004000580040005C004020
:100CC000600000200024F40008B5144B994207D9B5
:100CD000134B994212D9134B994202D900200CE0D0
:100CE0000E4B0F4A93420BD00E4A93420FD000682E
:100CF000FFF77AFF0021FFF753FE08BD084BF0E72E
:100D00000068FFF771FF0121FFF74AFEF5E7006871
:100D1000FFF76AFF0221FFF743FEEEE7A08601001E
:100D2000801A060040420F00002800F0C8802DE91C
:100D3000F04385B00F4615461E46044600F10409EF
:100D40005F49C06D01F01CFC80465E49206E01F0D9
:100D500017FCB8F1000F00F0AF80002800F0AC8065
:100D60000146404601F03CFC2060002800F0A480D1
:100D7000554B984244D02268544B9A425DD0226829
:100D8000534B9A4276D04F49206E01F0DBFB4C4921
:100D9000E06D01F0D7FB2368636039462046FFF71A
:100DA00093FFA060E6600023A3612561636194F86E
:100DB00097300BB14FF40023236294F898300BB1B5
:100DC0004FF400336362002584F845502A4602211F
:100DD00094F9640003F060F994F9640003F094F965
:100DE0002A46022194F9650003F056F994F965004A
:100DF00003F08AF9484603F0A8FB002857D0FEE725
:100E000003F5DE339A6D42F400129A659A6D02F48E
:100E100000120192019A9A6B42F400129A639A6B43
:100E200022F400129A631F2384F86430202384F88C
:100E30006530284BC3F800909DE703F5DC339A6DCD
:100E400042F480029A659A6D02F480020292029A3C
:100E50009A6B42F480029A639A6B22F480029A633E
:100E6000212384F86430222384F86530194BC3F8B9
:100E7000049084E703F5DA339A6D42F400029A6530
:100E80009A6D02F400020392039A9A6B42F40002F4
:100E90009A639A6B22F400029A63482384F86430C0
:100EA000492384F865300B4BC3F808906BE70023A7
:100EB000A366022384F8953005B0BDE8F08370473F
:100EC00004DA0008BCD90008005400400058004073
:100ED000005C00406C040020202A19D800B50023D3
:100EE00009E090F894C09C4411F803E084448CF825
:100EF00074E00133DBB21FFA83FC9445F1D390F820
:100F000094301A44D2B280F8942000205DF804FB9B
:100F1000012070472DE9F04F85B007468A4691467B
:100F2000984602F0B9F90390D7F830B0002602963F
:100F30003B465F469B4611E002F0AEF9039BC61AA2
:100F4000642E09D906230293029BBBB1029805B017
:100F5000BDE8F08F04230293022CF5D10BF10405B8
:100F6000009743464A465146284603F05DFC044636
:100F70000228E1D00028EDD10290EDE702F08CF9D3
:100F80000446284604F057FB202809D0632E07D8D2
:100F900002F082F9061B284604F050FB0028F0D02E
:100FA000284604F04BFB632E0AD810F0200F0AD11C
:100FB00010F0040F0AD10028C8D004230293C5E71B
:100FC00005230293C2E705230293BFE7032302939D
:100FD000BCE710B504466423043003F014FB022878
:100FE00010D0032807D060B194F84530DBB2202B35
:100FF00011D0042005E094F84530DBB2202B08D056
:10100000052010BD94F84530DBB2202BF9D0062026
:10101000F7E70220F5E70220F3E72DE9F04F85B06E
:10102000074689469246984602F036F90390B8F191
:10103000000F07D0D7F830B0002602963B465F4637
:101040009B4618E0012249463846FFF7C2FF02904E
:1010500009E002F021F9039BC61A642E09D9062380
:101060000293029BBBB1029805B0BDE8F08F042348
:101070000293022CF5D10BF104050097434652462A
:101080004946284603F076FB04460228E1D00028B2
:10109000EDD10290EDE702F0FFF80446284604F097
:1010A000CAFA202809D0632E07D802F0F5F8061BEB
:1010B000284604F0C3FA0028F0D0284604F0BEFA0F
:1010C000632E0AD810F0200F0AD110F0040F0AD1B5
:1010D0000028C8D004230293C5E705230293C2E782
:1010E00005230293BFE703230293BCE7043870474C
:1010F00030B108B519B1C166043003F0C7FC08BDB2
:10110000704730B108B519B10167043003F0BEFC77
:1011100008BD704770B506460D46FFF7E7FF044669
:1011200090F89530DBB2012B15D0012D1ED1002394
:1011300084F89530236F23B1002284F89420204650
:10114000984794F894204FF0007304F174013046EE
:1011500003F0C4FB70BD836E002BE6D0C36E9847CE
:10116000022384F895300023A366DEE70023A366FC
:10117000012284F89520A16E703121444FF08073D4
:101180000431304603F016FCE4E738B50546FFF7B6
:10119000ADFF044690F89530DBB2012B08D0022356
:1011A00084F895300023A366284603F06FFC38BD11
:1011B000836E002BF3D0C36E9847F0E710B504465A
:1011C000FFF794FF836E1F2B02DC836E013383666F
:1011D00090F89530DBB2012B00D010BD816E7031DC
:1011E00001444FF0807301220431204603F0E2FBFA
:1011F000F3E708B5FFF77AFF002380F8943008BDC5
:1012000010B50446FFF772FF90F8963003B110BD99
:10121000204603F03BFCFAE708B5024B186803F0E0
:101220004BFC08BD6C04002008B5024B186804F0A4
:10123000C0F908BD6C04002008B5024B586803F0E3
:101240003BFC08BD6C04002008B5024B586804F054
:10125000B0F908BD6C04002008B5024B986803F093
:101260002BFC08BD6C04002008B5024B986804F004
:10127000A0F908BD6C04002000207047028BC08AD2
:10128000101A70470346C28A018B8A4204D2016950
:10129000885C0132DA8270474FF0FF307047C38AB2
:1012A000028B934202D20269D05C70474FF0FF304C
:1012B00070472DE9F04104460F46164690F8243059
:1012C00043B3458C1544B5F5806F12D8038C9D420D
:1012D00010D91F2D09D9A8464146E0690BF074F8D2
:1012E00030B1E061A4F8208004E04FF02008F3E77B
:1012F000FEE7002515B92846BDE8F081E069638C5A
:101300003246394618440AF04FFF638C33446384F5
:101310003546F0E792B22830FFF7DEFD08B93546D2
:10132000E9E70025E7E710B504460023C3820383FD
:10133000006918B1A28A19460AF05EFF002363848F
:10134000E06918B1228C19460AF056FF10BD70B53D
:1013500082B004468DF8071090F824300BB3458C0A
:101360000135B5F5806F10D8038C9D420ED91F2D25
:1013700008D92E463146E0690BF026F820B1E0612D
:10138000268403E02026F5E7FEE700258DB1E2691B
:10139000638C9DF80710D154638C0133638401255D
:1013A00007E001220DF107012830FFF795FD18B97C
:1013B0000125284602B070BD0025FAE70B4A0260FD
:1013C000002242600A4901604FF47A718160094944
:1013D0000160C0F8CC20C0F8DC20074AD16DC0F80D
:1013E0008410926DC0F88820704700BFB4E10008F7
:1013F000CCE10008ACD60008B0E0000838B50446DF
:101400000D46012805D01CB94FF6FF739D4208D048
:1014100038BD4FF6FF739942F5D10C48FFF7CEFF68
:10142000F1E70A4B0A4A1A60D3F8DC301BB10948CD
:10143000032201469847054BD3F8CC30002BE7D068
:101440000548032201469847E2E700BF78040020E0
:10145000ACD600084C0500203C05002010B42C4BF5
:101460000360002343602B4C04604FF47A74846063
:10147000294C0460C0F8CC30C0F8DC30CBB2322B41
:1014800015D8264C54F8233001F4E0611943C0F814
:101490008410D3B2322B22D8204951F8233002F4E1
:1014A000E0621A43C0F888205DF8044B704701F0F1
:1014B000C004C02C02D04FF0FF31E8E7CF2B0BD88F
:1014C00001F03F04164B53F82440144B53F82430DA
:1014D00001F4E0611943DAE74FF0FF31D7E702F09A
:1014E000C001C02902D04FF0FF32DBE7CF2B0BD871
:1014F00002F03F010A4B53F82110084B53F82130FA
:1015000002F4E0621A43CDE74FF0FF32CAE700BFB2
:10151000B4E10008CCE10008ACD60008B0E0000857
:1015200070E00008012380F8243099408176002380
:101530004384704738B5044641B9AA23836594F8BB
:10154000BE30012B06D00425284638BD4FF42A436F
:101550008365F4E7638CE269A17E04F12800FFF75C
:101560005CFD032813D8DFE800F002140E100025FC
:10157000E06918B1228C00210AF03EFE002363844A
:1015800084F82430E0E70225F2E70325F0E704259C
:10159000EEE70125ECE708B50121FFF7CBFF08BD19
:1015A00038B5838A8B420BD205460C461F2900D8DA
:1015B0002024214628690AF007FF10B12861AC8277
:1015C00038BDFEE72DE9F0471F469DF820809DF8C5
:1015D00024A090F8BE30012B02D00020BDE8F08797
:1015E00004460E4615461146FFF7DAFFB8F1000F24
:1015F00014D1BAF1000F31D1AA23A36571002B4693
:10160000226901F0FE0104F12800FFF783FC00B11C
:1016100000250023E38225832846DFE73146204664
:10162000FFF780FFB8F1030F01D94FF0030808F16D
:10163000FF395FFA89F9B8F1000F0AD023681B68F7
:101640004FEAC90127FA01F1C9B220469847C846B6
:10165000EDE700212046FFF76DFFCAE74FF42A436C
:10166000A365CBE700B583B0019300230093FFF798
:10167000A9FF03B05DF804FB38B50546D0F8840037
:101680000AF0B4FA00210AF025FCD5F8843013F0F2
:10169000800F05D1C3F30312364951F8222000E030
:1016A000002203F00F03344951F8233012699343A9
:1016B00004D0002323B1012424B138BD0123F9E76C
:1016C0000024F9E7D5F888000AF090FA01210AF021
:1016D00001FC19E0002223E0002203F00F03264959
:1016E00051F823309361254B5968254B1A68254BD7
:1016F000A3FB0232920C02EB820252001F4B5B688A
:101700005B1A9A42FADC0134132C2ADCD5F88830B3
:1017100013F0800FDED1C3F30312164951F82220D3
:1017200003F00F03144951F823309362134B5968A7
:10173000134B1A68134BA3FB0232920C02EB82028A
:1017400052000E4B5B685B1A9A42FADCD5F888307F
:1017500013F0800FC0D1C3F30312064951F82220C1
:10176000BBE7D5F888000AF041FA00210AF0B2FB85
:10177000A3E700BF18000020D0D60008001000E04A
:101780006000002083DE1B432DE9F04104460D4636
:1017900090461F460021C1820183016181824184FC
:1017A0008176C1610184C0F88000D0F8DC3053B18B
:1017B00000F1D40603223146304698470023C4F88E
:1017C000DC30C4F8E030002384F824306B0084F867
:1017D0002530012D00D0002584F8BE50B8F1000F4F
:1017E00017D0012384F8BF30AFB1012384F8C03093
:1017F0002046FFF741FF04F1280594F82530012227
:101800000A492846FFF790FA94F8BE302BB1BDE89C
:10181000F0810023E6E70023E8E705492846FFF7C3
:1018200070FC04492846FFF763FCF0E7A08601003E
:10183000AF1800086118000808B50A460023012106
:10184000FFF7A2FF08BD00B583B0019183682BB1FB
:10185000C36801A9984703B05DF804FB0BF04EFE86
:1018600070B5856E846DD4F8CC302BB100F1740660
:10187000E28A238B9A4200D270BD29462046FFF7A8
:101880008FFE2A46314620690AF08EFC0023E3824F
:101890002583294604F1C400FFF7D5FFECE708B51E
:1018A000836813B1C368984708BD0BF027FE08B5DD
:1018B000806DD0F8DC3023B100234384D430FFF7AF
:1018C000EEFF08BD08B54FF6FF710120FFF796FD4A
:1018D00008BD08B54FF6FF710020FFF78FFD08BD6A
:1018E00000B589B007286AD8DFE800F004131F2B81
:1018F00037434F5D334BDA6C42F00102DA64DB6C44
:1019000003F001030093009B4FF0904009B05DF895
:1019100004FB2C4BDA6C42F00202DA64DB6C03F05D
:1019200002030193019B2848F0E7264BDA6C42F052
:101930000402DA64DB6C03F004030293029B234885
:10194000E4E7204BDA6C42F00802DA64DB6C03F067
:1019500008030393039B1E48D8E71A4BDA6C42F046
:101960001002DA64DB6C03F010030493049B194843
:10197000CCE7144BDA6C42F02002DA64DB6C03F043
:1019800020030593059B1448C0E703F0B1FE0D4BFF
:10199000DA6C42F04002DA64DB6C03F04003069339
:1019A000069B0E48B2E7074BDA6C42F08002DA641D
:1019B000DB6C03F080030793079B0948A6E7002030
:1019C000A4E700BF001002400004004800080048DF
:1019D000000C00480010004800140048001800489F
:1019E000001C004808B51D4900F0F2FDC0F3C430EA
:1019F00012282DD8DFE800F02D2F0A0C0E1012143B
:101A000016181A1C1E20222426282A00144821E019
:101A100014481FE014481DE014481BE0144819E066
:101A2000144817E0144815E0144813E0144811E076
:101A300014480FE014480DE014480BE0144809E086
:101A4000144807E0144805E0144803E0144801E096
:101A5000FEE7012008BD1348FCE700BFDCD7000803
:101A6000040060080800900C1000C0102000F01462
:101A7000400020198000501D000180210002B02587
:101A80000004002A0008302E00106032002090363A
:101A90000040C03A0080F03E000021430000524761
:101AA0000000844B0200300441F20203984208D047
:101AB00041F20303984206D041F20103984204D058
:101AC000FEE703487047034870470348704700BF6C
:101AD00001000080000084CB000052C708B5074910
:101AE00000F076FDC0F3C430012802D0022802D0F5
:101AF000FEE7002000E0102008BD00BF98D90008D4
:101B00000268094B9A4200D0704703F5CE339A6BB6
:101B100042F000529A639A6B22F000529A639A6DD7
:101B200022F000529A65EFE70074004010B586B0CD
:101B300004460A4900F024FD019060B12046FFF7F9
:101B4000CDFF014608B1102805D101A802F0A9FB7C
:101B500001A802F098FB06B010BD00BF98D900089C
:101B600000B583B00D4BDA6C42F40052DA64DA6CE3
:101B700002F400520192019AD3F8882042F04052B8
:101B8000C3F88820064B186810F4805F02D003B0B9
:101B90005DF804FB034900F0D5FCF8E700100240B3
:101BA00038000020DCD700080A4BDA6A42F4005201
:101BB000DA62DA6A22F40052DA62DA6A42F4005235
:101BC000DA62DA6A22F40052DA62DA6C22F4005243
:101BD000DA64704700100240F0B5A3B004460D4629
:101BE0006422002109A80AF007FB00230393049351
:101BF0000593069307930893ADF80A30019314F404
:101C0000805F03D041F203039C421AD986492046E3
:101C100000F0B6FC099001A92046FFF7E3FE064656
:101C20000227099B002B00F0B2814FF440330A9346
:101C3000082D41D00A2D42D0062D0AD000230B9347
:101C400009E07A4B09932046FFF72EFF0646072747
:101C5000E7E718230B9300230C930D9304220E92B5
:101C60008DF83C308DF83D30012210928DF84430D3
:101C70001293139314938DF854304FF480521692AC
:101C80008DF85C301E931C938DF87430684B1C608B
:101C900009A801F007FB002840F07B810396099B0F
:101CA000624A93420ED0634A934264D0624A93429E
:101CB00000F0E88000206DE110230B93CBE70823B0
:101CC0000B93C8E75D4A964200F01D815C4A96423C
:101CD00000F019815B4A964200F015815A4A9642FB
:101CE00000F0118102F186621032964200F00B8101
:101CF000564A964200F0078102F1866240329642CF
:101D000000F00181524A964200F0FD8002F18662A5
:101D100002F58072964200F0F6804E4A964200F03C
:101D2000F28002F1042202F54012964200F0EB80AC
:101D300002F1866202F50062964200F0E480464AB3
:101D4000964200F0E080454A964200F0DC80444A2A
:101D5000964200F0D880434A964200F0D480424A2E
:101D6000964200F0D080414A964200F0CC80404A32
:101D7000964298D1C7E0314A964200F0C480304A7A
:101D8000964200F0C0802F4A964200F0BC802E4A56
:101D9000964200F0B88002F186621032964200F05E
:101DA000B2802A4A964200F0AE8002F1866240324A
:101DB000964200F0A880264A964200F0A48002F1E4
:101DC000866202F58072964200F09D80214A96421A
:101DD00000F0998002F1042202F54012964200F0D0
:101DE000928002F1866202F50062964200F08B80DA
:101DF000194A964200F08780184A964200F0838084
:101E0000174A96427FD0174A96427CD0194A96428A
:101E100079D0194A964276D0184A964273D0184A19
:101E200096427FF443AF6EE0DCD700080000045018
:101E30003800002000010450000204500200300469
:101E4000040060080800900C1000C0104000201929
:101E5000000180210004002A002090360040C03A92
:101E60000080F03E0000214301000080000052C7C6
:101E7000000084CB000052470000844B00005AC78A
:101E800000008CCB464B9E423DD0464B9E423AD002
:101E9000454B9E4237D0454B9E4234D0444B9E42E8
:101EA00031D003F1866340339E422CD0414B9E4299
:101EB00029D003F1866303F580739E4223D03E4B05
:101EC0009E4220D003F1042303F540139E421AD012
:101ED00003F1866303F500639E4214D0374B9E42A4
:101EE00011D0374B9E420ED0364B9E420BD0364B14
:101EF0009E4208D0354B9E4205D0354B9E4202D0C3
:101F0000344B9E4248D10623049305977F230693C2
:101F1000042307930023089303A909A801F050FBA9
:101F200008B1002036E07F2109A802F056F808B178
:101F300000202FE009A801F08BFE08B1002029E065
:101F40000A2109A801F0B0FA08B1002022E009A88E
:101F500001F08EFD10F4007F05D109A802F01CF8F5
:101F600040B1002016E009A801F026FB83B2ADF8CD
:101F70000A30F2E709A801F02FFF78B9164A9368F2
:101F800023F0E0739360BDF80A0080B202E0002005
:101F900000E0002023B0F0BD0020FBE70020F9E7BF
:101FA00002003004040060080800900C1000C0100B
:101FB00040002019000180210004002A00209036F2
:101FC0000040C03A0080F03E000052C7000084CBC1
:101FD0000040C0BA0080F0BE0003045070B5054652
:101FE000134900F0CDFA06F04FF90446114B53F8AF
:101FF000203063B10F4B53F824301C6834B12046B5
:1020000006F092F9B421204606F0DAFA70BD0849CC
:10201000284600F0B5FA0646B42006F0CDFA05468B
:10202000314606F0FDF9034B53F824301D60E1E71B
:102030009CDB0008B806002008B501F02DF908BDAA
:10204000704708B501F01CF902F0A1F8FFF7F8FF9E
:1020500008BD000010B592B004464422002101A83A
:102060000AF0CAF803F0ECFA032C0DD8DFE804F00C
:1020700002101D2F1E4BD3F8943013F0020F03D122
:102080000823019301230693019B5BBB12B010BD93
:10209000174B1B6813F4806FF6D1022301934FF4A2
:1020A0008073049310230593EEE7114BD3F890301F
:1020B00013F0020FE8D10E4AD2F8903023F0180343
:1020C000C2F890300423019301230393DCE7084B0B
:1020D0001B6813F4003FD7D1012301934FF48033E1
:1020E0000293D1E701A803F0ADFB0028CED0FEE7B4
:1020F000001002407047000084B00F4B9A6D42F010
:1021000080529A659A6D02F080520192019A1A6E7D
:1021100042F001021A661A6E02F001020292029A5D
:102120009A6C42F480529A649B6C03F4805303933C
:10213000039B04B0704700BF001002400D4BD3F862
:10214000FC3013F0807F06D10A4AD2F8FC3043F00D
:102150008073C2F8FC30084B00225A601A6842F0C3
:1021600001021A6000BF00BF00BF5868B0FA80F0DB
:102170004009704700ED00E0001000E008B5FFF7EF
:10218000BBFFFFF7DBFF01F06BF8FFF7B3FF08F0D1
:102190008AFF024802F000F808BD00BF3C000020A2
:1021A0000346002002E05B080130C0B2012BFAD1E7
:1021B0007047000010B5012805D018B94FF6FF731D
:1021C000994246D010BD4FF6FF739942F5D1284B86
:1021D00006221A700022DA6007241C751A6208248D
:1021E00083F828405A63092483F83C409A640A24FF
:1021F00083F85040DA65172483F864401A6783F83F
:102200007840C3F8842083F88C40C3F8982083F882
:10221000A040C3F8AC2083F8B440C3F8C020282401
:1022200083F8C840C3F8D42083F8DC40C3F8E82022
:1022300083F8F040C3F8FC2083F80441C3F8102170
:1022400083F81841C3F8242183F82C41C3F83821BE
:10225000B3E7084C02E0032201469847044B9C4236
:10226000B0D0143C201D8368002BF4D1F6E700BFEA
:102270005C0500209C06002008B5012002F072F8E1
:1022800008BD08B5022002F06DF808BD08B50420AD
:1022900002F068F808BD08B5082002F063F808BD30
:1022A00008B5102002F05EF808BD10B5202403E048
:1022B000A0B202F057F86400B4F5007FF8D910BD61
:1022C00010B54FF4806403E0A0B202F04BF8640054
:1022D000B4F5004FF8D910BD08B5FFF761FF00EB6A
:1022E0008003044800EB8300043083680BB1FFF7E0
:1022F000D6FA08BD5C05002008B54FF6FF71012035
:10230000FFF758FF08BD08B54FF6FF710020FFF733
:1023100051FF08BDB0F1FF3F07D00B68B3F1FF3F9D
:1023200005D0834205D00C31F7E70020704700202C
:1023300070470120704700002DE9F0410546C1F3C8
:102340000628C0F3031005F00F027D4B53F82260FE
:10235000B5F1FF3F00D1FEE70C4601F00707FFF79C
:10236000BFFA826896FAA6F3C3B1B3FA83F35B00AF
:10237000032101FA03F322EA030296FAA6F37BB1E2
:10238000B3FA83F35B00032101FA03F31343836081
:102390008F424ED8DFE807F04E4E064E2023E6E788
:1023A0002023EFE7B8F17F0F01D1394643E005F074
:1023B0000F02634B53F8223015F0080F1DD0416A0D
:1023C0001B0A93FAA3F2A2B1B2FA82F292000F258D
:1023D00005FA02F221EA020293FAA3F35BB1B3FA1F
:1023E00083F39B0008FA03F842EA08024262394686
:1023F00021E02022EAE72023F3E7016A93FAA3F21F
:102400009AB1B2FA82F292000F2505FA02F221EA9D
:10241000020293FAA3F353B1B3FA83F39B0008FAD1
:1024200003F842EA08020262E1E72022EBE72023F8
:10243000F4E7FEE73946026896FAA6F37BB3B3FAEF
:1024400083F35B00032505FA03F322EA030296FAFD
:10245000A6F333B3B3FA83F35B0001FA03F3134338
:10246000036014F4001F1ED0C36A3343C362013FEC
:10247000012F1DD9C4F30114012C25D0022C40D00A
:10248000C36896FAA6F6002E57D0B6FA86F67600FE
:10249000032202FA06F623EA0603C3602BE0202398
:1024A000CFE72023D8E7C36A23EA0603C362DEE747
:1024B00014F0080F03D0436833434360DAE74368FE
:1024C00023EA06034360D5E7C26896FAA6F3A3B1F0
:1024D000B3FA83F35B00032101FA03F322EA030357
:1024E00096FAA6F65EB1B6FA86F67600012202FAF0
:1024F00006F63343C360BDE8F0812023EAE72026D7
:10250000F3E7C26896FAA6F39BB1B3FA83F35B00D4
:10251000032101FA03F322EA030396FAA6F656B161
:10252000B6FA86F67600022202FA06F63343C36054
:10253000E1E72023EBE72026F4E72026A7E700BF0A
:10254000D0D60008B0F1FF3F08D008B50B68B3F152
:10255000FF3F08D0834202D00C31F7E7704789680B
:10256000FFF7EAFE08BDFEE700E00C310B68B3F1AF
:10257000FF3F03D08342F8D148687047002070477E
:10258000B0F1FF3F03D008B5FFF7EEFF08BD002014
:10259000704700E00C314B681BB18342FAD10868E8
:1025A00070474FF0FF30704718B108B5FFF7F1FFE3
:1025B00008BD4FF0FF307047034600E00C3108685B
:1025C000B0F1FF3F03D09842F8D188687047704758
:1025D000B0F1FF3F03D008B5FFF7EEFF08BD70472D
:1025E000884204D010B111B10020704708467047EE
:1025F000114B4FF000629A60D3F8882042F47002C9
:10260000C3F888200D4B1A6842F001021A600021BD
:1026100099601A6822F0A85222F410221A604FF42E
:102620008052DA601A6822F480221A60996140F2BE
:10263000FF321A62704700BF00ED00E00010024058
:10264000043870478CB00268584B9A4229D003680E
:10265000B3F1804F31D00268554B9A4239D00268AD
:10266000544B9A4241D00268534B9A4249D0026877
:10267000524B9A4251D00268514B9A4259D002684B
:10268000504B9A4261D002684F4B9A4269D002681F
:102690004E4B9A4271D002684D4B9A4279D00CB0A1
:1026A000704703F564431A6E42F400621A661B6EAB
:1026B00003F400630193019BC9E703F504339A6DAA
:1026C00042F001029A659B6D03F001030293029BA5
:1026D000C1E703F503339A6D42F002029A659B6DE0
:1026E00003F002030393039BB9E703F502339A6DEA
:1026F00042F004029A659B6D03F004030493049B6B
:10270000B1E703F501339A6D42F008029A659B6DBB
:1027100003F008030593059BA9E703F500339A6DC1
:1027200042F010029A659B6D03F010030693069B1E
:10273000A1E703F5FE339A6D42F020029A659B6D86
:1027400003F020030793079B99E703F55C431A6E98
:1027500042F400521A661B6E03F400530893089B60
:1027600091E703F550431A6E42F480321A661B6EED
:1027700003F480330993099B89E703F54C431A6EF0
:1027800042F400321A661B6E03F400330A930A9B6C
:1027900081E703F548431A6E42F480221A661B6EE5
:1027A00003F480230B930B9B79E700BF002C0140BF
:1027B0000004004000080040000C004000100040F1
:1027C000001400400034014000400140004401403A
:1027D000004801400268374B9A4228D00368B3F1A1
:1027E000804F2AD00268344B9A422CD00268334B77
:1027F0009A422ED00268324B9A4230D00268314B56
:102800009A4232D00268304B9A4234D002682F4B41
:102810009A4236D002682E4B9A4238D002682D4B2D
:102820009A423AD002682C4B9A423CD070472B4ACD
:10283000136E23F400631366D0E7284A936D23F0E8
:1028400001039365CEE7254A936D23F00203936558
:10285000CCE7224A936D23F004039365CAE71F4A2D
:10286000936D23F008039365C8E71C4A936D23F02A
:1028700010039365C6E7194A936D23F0200393650F
:10288000C4E7164A136E23F400531366C2E7134AD3
:10289000136E23F480331366C0E7104A136E23F4DB
:1028A00000331366BEE70D4A136E23F480231366CC
:1028B000BCE700BF002C01400004004000080040BD
:1028C000000C0040001000400014004000340140A3
:1028D0000040014000440140004801400010024017
:1028E000B0F1FF3F34D0234B984234D018D8A3F531
:1028F0004063984231D008D91F4B984231D003F53C
:10290000806398420BD136207047B0F1804F26D0BB
:10291000A3F58063984201D11D207047FEE7FDE7D3
:10292000164B98421FD008D9154B98421FD003F57B
:1029300080639842F2D11A207047A3F5A0539842C1
:1029400013D003F50063984201D12C207047E5E7CE
:102950006FF00D007047372070471E2070471C2015
:10296000704732207047182070471920704719208F
:10297000704700BF00140040000C004000400140C0
:1029800000440140B0F1FF3F34D0234B984234D093
:102990000CD9224B984238D021D9214B984238D0BB
:1029A00003F58063984218D11A207047A3F540635D
:1029B000984224D008D91B4B984224D003F5806359
:1029C00098420BD136207047B0F1804F19D0A3F553
:1029D0008063984201D11D207047FEE7FDE7A3F513
:1029E000A053984213D003F50063984201D12E20E2
:1029F0007047F2E76FF00D007047372070471E20D8
:102A000070471C20704732207047182070471B20E9
:102A100070471920704700BF00140040004001407B
:102A200000440140000C0040F8B50446FFF708FEE2
:102A300005462046FFF706FE2068FFF751FF6A6D46
:102A4000296D01F029FB2068FFF74AFF01F05CFBCC
:102A500027683846FFF796FF06463846FFF740FFDF
:102A6000864200D1F8BD6A6D296D304601F014FB35
:102A70002068FFF787FF01F047FBF3E70438704752
:102A80002DE9F04F89B00193002800F0D9800E465F
:102A90001746044600F1040BA049D0F89000FFF758
:102AA0006FFD80469E49D4F89400FFF769FD054606
:102AB0009C49D4F89800FFF763FD82469A49D4F800
:102AC0009C00FFF75DFD8146B8F1000F00F0B88073
:102AD000D4F89430B3F1FF3F02D0002D00F0B08065
:102AE000D4F89830B3F1FF3F03D0BAF1000F00F0F3
:102AF000A780D4F89C30B3F1FF3F03D0B9F1000FA9
:102B000000F09E8029464046FFF76AFD206051464E
:102B1000FFF766FD20604946FFF762FD2060002850
:102B200000F08E80814B98422CD0814B984200F06F
:102B30008A80804B984200F0A0807F4B984200F042
:102B4000B6807E4B984200F0CC807D4B984232D1CB
:102B500003F5C833DA6B42F00102DA63DA6B22F074
:102B60000102DA63DA6D42F00102DA65DB6D03F02F
:102B700001030793079B052384F8A130462384F8BB
:102B8000A03018E003F558431A6C42F480421A64EE
:102B90001A6C22F480421A641A6E42F480421A6659
:102BA0001B6E03F480430293029B002384F8A13040
:102BB000252384F8A0305949D4F89000FFF7C2FCCF
:102BC00025B15749D4F89400FFF7BCFCBAF1000FC7
:102BD00000F0A1805349D4F89800FFF7B3FC4FF4FC
:102BE0008078B9F1000F06D048F400784E49D4F847
:102BF0009C00FFF7A7FC94F8A120524B43F822B0A9
:102C000023686360A660E760129B2361019B636198
:102C10000C23A361C4F81C8000222262A2626262BB
:102C2000012194F9A00001F037FA2268444B9A423E
:102C300000F08A80002D00F00E81584605F0BFF9A3
:102C400009B0BDE8F08F03F5E6339A6B42F4003229
:102C50009A639A6B22F400329A639A6D42F40032BE
:102C60009A659B6D03F400330393039B012384F85F
:102C7000A130262384F8A0309DE703F5E4339A6B56
:102C800042F480229A639A6B22F480229A639A6DAE
:102C900042F480229A659B6D03F480230493049B85
:102CA000022384F8A130272384F8A03083E703F5BA
:102CB000E2339A6B42F400229A639A6B22F4002268
:102CC0009A639A6D42F400229A659B6D03F4002387
:102CD0000593059B032384F8A130342384F8A030A6
:102CE00069E703F5E0339A6B42F480129A639A6BBA
:102CF00022F480129A639A6D42F480129A659B6D59
:102D000003F480130693069B042384F8A130352333
:102D100084F8A0304FE74FF0000862E7E0DF0008DA
:102D200050DF0008D8DE00086CDE000800380140E3
:102D30000044004000480040004C0040005000406B
:102D4000008000409C060020B6F5165F3CD858462F
:102D500005F038FA584605F069FA002D3BD0584680
:102D600005F02DF900283FF46BAFB6F5165F38D9A2
:102D70003B4B1B6813F4806F0BD02268394B9A428F
:102D80004BD0002D53D0584605F019F900283FF4D8
:102D900057AF2268334B9A424FD0002D55D058463A
:102DA00005F00DF900283FF44BAF22682D4B9A42F5
:102DB0007FF440AF2A4AD2F8883023F4406343F4CA
:102DC0008063C2F8883035E7584605F015FA584652
:102DD00005F043FAC1E7584605F022F90028C4D1AE
:102DE0002EE70220FFF736F922681E4B9A4206D0E2
:102DF0006DB1584605F0E3F80028B9D120E7184A2C
:102E0000D2F8883043F44063C2F88830F0E758467F
:102E100005F006F90028ABD112E7114AD2F8883044
:102E200023F4406343F40063C2F88830A9E75846AE
:102E300005F0F6F80028ACD102E7094AD2F888304C
:102E400023F44063C2F88830A7E7584605F0E8F855
:102E50000028AAD1F4E6584605F0E2F8F0E600BFF3
:102E6000001002400080004010B582B00A4B1A6882
:102E70000A4B53F822400A492046FFF781FB48B12C
:102E80000848C0F890400022009213464FF41651B3
:102E9000FFF7F6FD02B010BD70E00008B0E00008DA
:102EA000E0DF00086400002008B590F8A120064B80
:102EB00053F8220004F077FD00F02200222814BF0E
:102EC0000020012008BD00BF9C06002008B590F836
:102ED000A120064B53F8220004F065FD00F021000C
:102EE000212814BF0020012008BD00BF9C0600203F
:102EF000F8B506460D4600F0CFF90446334B93F87B
:102F0000A130052B17D8314B93F8A120304B53F843
:102F10002200FFF7B3FD0746002853D03846FFF7DD
:102F2000D5FF002842D000F0B7F9031BB3F57A7F34
:102F3000F4D30020F8BD274B1A68274B53F82270B2
:102F400026493846FFF71CFB002839D01F4B0022CA
:102F500083F8A12005E01D4A92F8A130013382F8E0
:102F6000A1301A4B93F8A130052B11D8184A52F80A
:102F70002330002BEFD019493846FFF701FB134BE4
:102F800093F8A120124B53F822301B688342E2D100
:102F90000E4B93F8A130052BB5D9FFF765FF0B4B0E
:102FA00093F8A130052BAED90020C3E74FF47A7314
:102FB000AAB23146381D04F05EFF28B92846B9E7A9
:102FC0000020B7E70020B5E70020B3E76400002049
:102FD0009C06002070E00008B0E00008E0DF000878
:102FE000A0B138B50D460446FFF75EFF88B994F8E6
:102FF000A2302B7094F8A100012204F1A201064B2B
:1030000053F8200005F0B0F8002038BD4FF0FF3035
:1030100070474FF0FF30F8E79C060020D8B138B574
:103020000D460446FFF740FF00B138BDC4F8885094
:1030300094F9A00001F076F894F8A100012204F1BF
:10304000A201054B53F8200005F08EF894F9A0007A
:1030500001F05AF8E9E770479C060020D8B138B56E
:1030600015460446C0F88C1090F9A00001F05AF8FB
:1030700094F8A100D4F8A830B4F8B210AAB213FAA8
:1030800081F1054B53F8200004F0C8F994F9A00031
:1030900001F03AF838BD70479C06002070B108B5C1
:1030A000D0F89420B2F1FF3F00D008BD90F8A120E5
:1030B000034B53F8220004F02EFCF6E7704700BFE4
:1030C0009C06002070B108B5D0F89420B2F1FF3F03
:1030D00000D008BD90F8A120034B53F8220004F063
:1030E0003EFCF6E7704700BF9C06002008B5FFF7DE
:1030F000C5FC10B1D0F88820904708BD08B5FFF78F
:10310000BDFC10B1D0F88C20904708BD38B50446FE
:103110000368DA6912F0010F0AD001221A62204610
:10312000FFF7ACFC054610B1FFF7BEFEA8B138BDF5
:10313000DA6912F0020F02D002221A62EFE7DA69AE
:1031400012F0040F02D004221A62E8E7DA6912F0E2
:10315000080FE4D008221A62E1E7012205F1A2017A
:10316000204605F001F8E2E708B5252001F000F857
:10317000024B186804F0AEF908BD00BF9C060020A1
:1031800008B5262000F0F4FF024B586808B104F09F
:10319000A1F908BD9C06002008B5272000F0E8FF33
:1031A000024B986808B104F095F908BD9C06002010
:1031B00008B5342000F0DCFF024BD86804F08AF92F
:1031C00008BD00BF9C06002008B5352000F0D0FFE8
:1031D000024B186904F07EF908BD00BF9C06002070
:1031E00008B5462000F0C4FF024B586904F072F99C
:1031F00008BD00BF9C06002010B50446FFF73EFC4A
:10320000012200F1A201204604F0AEFF10BD70477C
:10321000104B1B780BB90120704710B504464FF4D2
:103220007A70B0FBF3F30C4A1068B0FBF3F000F0D7
:103230008BFF68B90F2C01D901200AE0002221463A
:103240004FF0FF3000F028FF044B1C60002000E02E
:10325000012010BD1C010020600000202001002082
:1032600010B5032000F006FF0020FFF7D1FF10B1DA
:103270000124204610BD0446FFF7C9FFF9E700000E
:10328000034B1B78034A11680B441360704700BF5F
:103290001C010020B4060020014B1868704700BFD5
:1032A000B406002030B583B000230193002800F05D
:1032B000EB800446436D13B323689A6812F0005FF5
:1032C00005D09A6822F0204222F03F029A602268DC
:1032D000936813F0805F1FD1936823F0104323F0AD
:1032E0003F0343F080539360684B1B689B09684A17
:1032F000A2FB03239B0901335B00019309E0FEF766
:103300002FFC0023A36584F85030D5E7019B013BD7
:103310000193019B002BF9D12268936813F0805F21
:1033200040F08980636D43F010036365A36D43F043
:103330000103A3650120936813F0040300D0012367
:10334000616D11F0100F40F09880002B40F09580D7
:10335000636D23F4817343F002036365936813F094
:10336000010F1BD14B4B9A6812F0010200D00122D1
:10337000494B9B6813F0010300D001231343474AD4
:10338000926812F0010200D00122134306D1636853
:1033900043498A6822F47C1213438B60627E636B1C
:1033A00043EA4233E2681343A268134394F82020AF
:1033B00043EA0243012A40D0A26A22B102F47072A9
:1033C000E16A0A4313432168CD68364A2A40134311
:1033D000CB6021688B6813F0040300D001238A6856
:1033E00012F0080200D00122B3B9AAB9227E94F8E3
:1033F00030305B0043EA8232CB6823F4804323F011
:1034000002031343CB6094F83830012B1AD02268A2
:10341000136923F0010313612369012B24D022686F
:10342000136B23F00F031363636D23F0030343F067
:103430000103636526E000207DE7626A013A43EA02
:103440004243B9E721680B6923F4FF6323F00403C7
:10345000E26B256C2A43656C2A43A56C2A4313430F
:1034600043F001030B61D7E721680B6B23F00F03D7
:10347000E269013A13430B63D6E7636D43F010032F
:103480006365012003B030BD0120FBE76000002030
:10349000632D3E050000045000010450000204505A
:1034A0000003045007C0F0FF2DE9F04104460E462A
:1034B0003F4B9F6807F01F074569082D11D057B192
:1034C000052F08D0092F06D0394B9B6813F4604FA5
:1034D0002CD1042505E02368DB6813F0010F1FD110
:1034E0000425FFF7D9FE804623681A682A4223D1B3
:1034F000B6F1FF3FF8D0FFF7CFFEA0EB0800B042D7
:1035000001D8002EF0D123681B682B42ECD1636DEB
:1035100043F004036365002384F85030032042E045
:10352000636D43F02003636501203CE0436D43F08D
:1035300020034365012036E0626D42F4007262654B
:10354000DA6812F4406F11D1627E7AB91A6812F00B
:10355000080F0BD0626D22F480726265626D12F406
:10356000805F03D1626D42F001026265114A9342AD
:1035700009D01A46934209D047B1052F06D0092F2A
:1035800004D0D26803E0A2F58072F3E7DA68082D70
:1035900006D012F4804F08D10C221A60002002E0FD
:1035A00008221A600020BDE8F0810020FBE700BF80
:1035B00000030450000104500368186C70470000B9
:1035C000F0B583B00022019290F85020012A00F05B
:1035D00045820346012280F850200268926812F06A
:1035E000040F09D0426D42F0200242650120002202
:1035F00083F8502003B0F0BD4A68052A08D8023A83
:10360000032A68D8DFE802F0025D60630C224A609A
:103610001D684C683035220A920002F00C02A8584E
:1036200004F01F0E1F2404FA0EF420EA04000C68B4
:10363000C4F3846C0CFA0EFC40EA0C00A8501C6821
:10364000A26812F0040200D00122A06810F0080065
:1036500000D001200AB9002840D01868826812F012
:10366000010F17D10A68CD68D0F8B040C2F3120C30
:1036700024EA0C0405F0180CAD4D25FA0CF52A408F
:10368000C2F312022243C0F8B020C868A94A90428F
:1036900000F0B9800A68A8490A4200F0DB81A74916
:1036A000896801F0E074A648824200F07D81A54857
:1036B000824200F0A481A448824200F0B881002038
:1036C00095E712224A60A3E718224A60A0E74FF468
:1036D00080724A609CE706224A6099E70E688D680E
:1036E0001434720E920002F00402A058C6F3045C77
:1036F000072606FA0CF620EA060005FA0CF5284320
:10370000A05048691C68E268C2F3C102520000FA86
:1037100002F20D69042D0ED00E68603454F8257045
:103720008A48384006F0F8463243104340F00040E3
:1037300044F8250091E7226E206EC0F384600A6889
:10374000C2F3120585BBC2F38462904234D01C6878
:10375000626E606EC0F384600A68C2F3120585BBB6
:10376000C2F38462904234D01C68A26EA06EC0F393
:1037700084600A68C2F3120585BBC2F3846290427A
:1037800034D01C68E26EE06EC0F384600A68C2F355
:10379000120585BBC2F3846290427FF45EAFE26E95
:1037A00022F00042E26658E792FAA2F212B1B2FAAF
:1037B00082F2CAE72022C8E7226E22F00042226687
:1037C000C5E792FAA2F212B1B2FA82F2CAE7202257
:1037D000C8E7626E22F000426266C5E792FAA2F282
:1037E00012B1B2FA82F2CAE72022C8E7A26E22F032
:1037F0000042A266C5E792FAA2F212B1B2FA82F2D0
:10380000CAE72022C8E71C680A68C2F31205002D27
:1038100039D1900E013000F01F0009288CBF002024
:103820000120002867D0002D3CD1900E0130800689
:1038300000F0F840002D41D1960E013606F01F0C25
:10384000012606FA0CF63043002D46D1920E0132C5
:1038500002F01F0202EB420212050243886804F1E3
:103860001406550EAD0005F004057459C2F3045258
:103870004FF0070C0CFA02FC24EA0C0C90404CEAC6
:103880000000705106E792FAA2F048B1B0FA80F059
:10389000013000F01F0009288CBF00200120C0E784
:1038A0002020F5E792FAA2F030B1B0FA80F00130B2
:1038B000800600F0F840BDE72020F8E792FAA2F673
:1038C0004EB1B6FA86F6013606F01F064FF0010C2F
:1038D0000CFA06F6B7E72026F5E792FAA2F242B113
:1038E000B2FA82F2013202F01F0202EB420212052A
:1038F000B3E72022F6E75DBB900E0130800600F0B2
:10390000F8408DBB960E013606F01F0C012606FA14
:103910000CF63043BDBB920E013202F01F0202EBE7
:1039200042021E3A120542F00072024396E700BFBF
:10393000FFFF070000007F400000088000030450E4
:10394000000052C7000084CB0100008000F0FF039C
:1039500092FAA2F030B1B0FA80F00130800600F0A7
:10396000F840CEE72020F8E792FAA2F64EB1B6FA78
:1039700086F6013606F01F064FF0010C0CFA06F62B
:10398000C7E72026F5E792FAA2F25AB1B2FA82F21C
:10399000013202F01F0202EB42021E3A120542F00F
:1039A0000072C2E72022F3E711F4000F7FF47FAE2C
:1039B0001A682B498A4205D001F500718A4201D06C
:1039C000002014E644F4000426498A6822F0E072DC
:1039D00014438C60244A126892092449A1FB021204
:1039E0009209013202EB42029200019202E0019A36
:1039F000013A0192019A002AF9D10020F7E511F06D
:103A0000807F7FF458AE1A6815498A4205D001F5C7
:103A100000718A4201D00020E9E544F0807211482B
:103A2000816821F0E0710A4382600020DFE511F433
:103A3000800F11D119680A4A914201D00020D6E5C1
:103A400044F480020748816821F0E0710A438260F3
:103A50000020CCE50020CAE50020C8E50220C9E529
:103A6000000004500003045060000020632D3E0558
:103A7000406D704770B5044603689A6812F00402FE
:103A800000D00122986810F0080000D001200AB987
:103A900000286BD0DA6812F0007F04D0208B40F24F
:103AA000011290424ED0022910D023689A6812F079
:103AB000040F0BD09A6812F0020F07D19A6822F017
:103AC000004222F03F0242F010029A60012910D019
:103AD00023689A6812F0080F0BD09A6812F0020F50
:103AE00007D19A6822F0004222F03F0242F0200201
:103AF0009A60022934D0032934D10C25FFF7CCFB7E
:103B0000064623689B682B422ED0FFF7C5FB801B1F
:103B10000528F6D923689B682B42F2D0636D43F0E9
:103B200010036365A36D43F00103A36501201CE04E
:103B3000636D43F010036365A36D43F00103A36558
:103B4000012012E00022196811F0400F04D1084949
:103B50008A42EDD80132F6E740221A600121A4E73B
:103B60000825CBE70425C9E7002070BD0020FCE74D
:103B7000FFFF3FA330B583B00023019303689A6829
:103B800012F0010F58D1044699682D4A114219D1FB
:103B90009A6822F0004222F03F0242F001029A604D
:103BA000284B9B6813F4000F1CD0274B1B689B0904
:103BB000264AA2FB03239B09013303EB43039B002B
:103BC00001930CE0436D43F010034365836D43F0B4
:103BD00001038365012030E0019B013B0193019BC0
:103BE000002BF9D1FFF758FB054623681A6812F03D
:103BF000010F1FD19A6812F0010F07D19A6822F0C5
:103C0000004222F03F0242F001029A60FFF744FBBB
:103C1000431B022BE9D923681B6813F0010FE4D181
:103C2000636D43F010036365A36D43F00103A36567
:103C3000012002E0002000E0002003B030BD00BF02
:103C40003F0000800003045060000020632D3E050B
:103C500038B53A4B9D6803689B6813F0040F69D12F
:103C6000044605F01F0590F85030012B64D0012365
:103C700080F85030FFF77EFF002857D1636D23F4A2
:103C8000706323F0010343F48073636523682C4A57
:103C900093422FD01A46934200D01DB9626D22F490
:103CA00080126265626D12F4805F26D0A26D22F0F0
:103CB0000602A2651C221A60002384F85030226894
:103CC0001F4B9A421CD013469A421CD0DDB1052DE1
:103CD00019D0092D17D0626D42F480126265DB683D
:103CE00013F0007F27D0636D23F4405343F48053D7
:103CF000636520E0A2F58072CDE70022A265D9E7D6
:103D0000A3F58073E0E7D36813F0007F05D0636DFF
:103D100023F4405343F480536365936823F00043D6
:103D200023F03F0343F00403936004E0002384F88E
:103D3000503000E0022038BD0220FCE700030450B0
:103D40000001045038B504460268936813F002037A
:103D500000D00123916811F0010F39D0002B39D127
:103D6000936803F00D03012B09D0636D43F010033A
:103D70006365A36D43F00103A365012029E0936807
:103D800023F0004323F03F0343F0020393602368D2
:103D900003221A60FFF780FA054623689B6813F038
:103DA000010F13D0FFF778FA401B0228F5D92368DA
:103DB0009B6813F0010FF0D0636D43F0100363654F
:103DC000A36D43F00103A365012002E0002000E0A1
:103DD000002038BD0020FCE738B5002800F0C9807D
:103DE0000446436D43F0020343650321FFF742FE9F
:103DF0002268D36843F40013D3600546002800F01E
:103E00009F802268536823F4FF6323F00703536005
:103E1000236840F2FF721A602268936823F0A0437F
:103E200093602268936843F0005393602268D168DE
:103E3000514B0B40D3602268D36843F00043D360FA
:103E40002268136923F4FF6323F0070313612268D8
:103E5000536903F0404353612268936903F0784348
:103E600093612268136A03F0F02313622268536A95
:103E700003F0FF2353622268936A03F0FF239362E7
:103E80002268116B3D4B0B40136323685A6B3C490E
:103E90000A405A632268936B0B4093632268D36B8A
:103EA00023F4FB6323F00703D36321680A6E354BC9
:103EB0001A400A6621684A6E1A404A6621688A6E6C
:103EC0001A408A662168CA6E1340CB662268D2F80F
:103ED000A030DB0CDB04C2F8A0302268D2F8A4309A
:103EE000DB0CDB04C2F8A4302268D2F8B030DB0C63
:103EF000DB04C2F8B0302268D2F8B43023F07F136C
:103F0000C2F8B430204B9A6812F0010200D00122AE
:103F10001E4B9B6813F0010300D0012313431C4A7E
:103F2000926812F0010200D00122134312D0002344
:103F3000A365E3652366636584F85030284638BD81
:103F40002046FFF7FFFE054600287FF45AAF012305
:103F5000636556E70F4A936823F0FF7323F4F73342
:103F600023F48F7323F0010393602046FDF71CFEBA
:103F7000DDE70125E2E700BF04800080300882E031
:103F8000200882E000F0FF0300000450000104500C
:103F9000000204500003045090F85030012B1AD056
:103FA00010B50446012380F850300321FFF762FD6D
:103FB00018B1002384F8503010BD2046FFF7C2FE30
:103FC0000028F6D1636D23F4885323F0010343F0F6
:103FD00001036365EDE70220704730B583B000232D
:103FE000019390F85030012B41D004460D46012337
:103FF00080F85030FFF7A6FE80BB636D23F4885332
:1040000023F0020343F0020363652268936823F000
:10401000404323F03F0305F080452B4343F000432A
:10402000936023689B68002B06DB636D23F003031A
:1040300043F00103636515E0019B01330193019B8C
:10404000B3F5912FEDD3636D23F0120343F010030A
:104050006365002384F85030012006E0636D43F06F
:1040600010036365002384F8503003B030BD022094
:10407000FBE70000074AD36823F4E0631B041B0C32
:10408000000200F4E060034343F0BF6343F40033F5
:10409000D360704700ED00E000B5194BDB68C3F357
:1040A0000223C3F1070CBCF1040F28BF4FF0040C2E
:1040B00003F1040EBEF1060F18D9033B4FF0FF3E8B
:1040C0000EFA0CFC21EA0C0199400EFA03F322EAE5
:1040D0000303194300280BDB0901C9B200F160405A
:1040E00000F5614080F800135DF804FB0023E5E76C
:1040F00000F00F000901C9B2024B1954F4E700BFE8
:1041000000ED00E014ED00E0002807DB00F01F02E6
:10411000400901239340024A42F82030704700BF13
:1041200000E100E000280CDB00F01F024009012341
:1041300093402030034A42F82030BFF34F8FBFF343
:104140006F8F704700E100E00138B0F1807F0BD243
:104150004FF0E0235861054AF02182F82310002037
:10416000986107221A6170470120704700ED00E056
:10417000002808DB00F01F02400901239340603053
:10418000014A42F82030704700E100E0704708B56E
:10419000FFF7FCFF08BD7047002838D010B5044673
:1041A000437F1BB30223637723791BBB2368194A20
:1041B0005A612268936823F018039360637913BBF4
:1041C00023684FF0FF321A612268936823F060037E
:1041D00061690B4393602268936823F08003A169AF
:1041E0000B43936001236377002010BD0377FFF733
:1041F000D2FFD7E7E268A168204600F00DF800285A
:10420000DCD00120F1E7236822691A61DCE7012094
:10421000704700BFB71DC10410B41F231C46013BEB
:1042200034B103F01F0C21FA0CFC1CF0010FF5D087
:10423000182A22D8DFE802F00F2121212121212193
:104240001D2121212121212119212121212121216A
:104250000D00062B15D80368596101688B6823F09F
:1042600018031A438A60002008E0072BF3D90120C5
:1042700004E00F2BEFD9012000E001205DF8044B92
:1042800070470120FAE750B110B5044602230371CC
:10429000FDF736FC002020612071607110BD012007
:1042A000704710B40468236801F01001012202FA7B
:1042B00001F123EA01012160027100205DF8044B45
:1042C000704790F82530DBB2022B06D00423C3637D
:1042D000002380F82430012070470268136823F01F
:1042E0000E0313600268136823F001031360436C2C
:1042F00003F01C03016C012202FA03F34B6080F807
:104300002520002380F824301846704708B590F81F
:104310002530DBB2022B03D00423C363012008BD88
:104320000268136823F00E0313600268136823F019
:1043300001031360436C03F01C03016C012202FAB9
:1043400003F34B6080F82520002380F82430836B32
:1043500013B198470020E2E70020E0E790F825003D
:104360007047000008B5054B5B69034200D108BDEA
:10437000024B5861FDF7B0FFF9E700BF00040140B0
:1043800003689A6912F0020F01D000229A62036852
:104390009A6912F0010F03D19A6942F001029A6101
:1043A000704710B4019CC1F3090141EA024119436D
:1043B000214321F0004102685368640D04F48064D5
:1043C00044F07F7444F4583444F47F7444F003049C
:1043D00023EA0404214351605DF8044B7047000058
:1043E000436B1D4A934217D01C4A934214D011F4D8
:1043F000004F2BD1002311F0010F01D043F0F20345
:1044000011F0020F01D043F0F403102920D020292D
:104410000CD143F0200309E011F4004F0BD100232D
:1044200010290AD020290BD040290CD001680A6835
:1044300013430B607047B823F2E743F09003F1E7B2
:1044400043F06003F0E743F04003EFE7B823D2E71F
:1044500043F09003DBE700BF715400084D530008A0
:1044600011F0010F09D090F8413003F02803282BF8
:1044700001D0F22302E0422300E0002311F0020FFA
:1044800009D043F0440C90F8412002F02802282A79
:1044900010D043F0F40311F4004F0DD110290ED0C9
:1044A00020290FD0402910D001680A6822EA0303AE
:1044B0000B6070476346EEE743F0B803EEE743F066
:1044C0009003EDE743F02003ECE743F04003EBE714
:1044D000C36AAA2B04D0C36AB3F52A4F03D070472E
:1044E0000023C36270474FF00073C362F7E72DE902
:1044F000F0410646884617461D463468A46938EAE6
:1045000004030CBF4FF0010C4FF0000CBC4518D158
:10451000B5F1FF3FF1D0FEF7BFFE069BC01AA842DF
:1045200001D8002DE9D1736C43F02003736420237C
:1045300086F84130002386F8423086F8403001206A
:1045400000E00020BDE8F0817047002859D010B588
:10455000044690F84130002B43D0242384F84130A6
:104560002268136823F0010313606368226823F054
:10457000706313612268936823F400439360E368D7
:10458000012B33D0A368226843F404439360E368AB
:10459000022B31D02268536843F0007343F4004388
:1045A00053602268D36823F40043D36023696269AF
:1045B0001343A169226843EA0123D360E369216AB6
:1045C00022680B4313602268136843F001031360F1
:1045D00000206064202384F84130206384F8420086
:1045E00010BD80F84030FFF7AFFFB6E7A368226840
:1045F00043F400439360CAE723684FF400625A60B3
:10460000C8E7012070472DE9F04385B01D4600231F
:10461000039390F84130DBB2202B40F09E80064699
:104620008946904603689B6913F4004F40F09780D9
:1046300090F84030012B00F09480012380F8403046
:10464000242380F841300023436444E0C9F3090384
:1046500043F0007343F4005344E033689C69C4F3AF
:1046600040149B69C3F30013C4B9BBB9B5F1FF3F54
:10467000F3D0FEF711FEC01BA84201D8002DECD1EB
:10468000202386F84130736C43F0200373640023C9
:1046900086F84030012005B0BDE8F08333689B699F
:1046A00013F0100F2BD000972B460022202130460C
:1046B000FFF71DFF002858D133681022DA613368F4
:1046C0002022DA61039B43452AD0039B01330393E5
:1046D000039B434535D2F368012BB7D0C9F30903D7
:1046E00043F4205332685360FEF7D6FD0746336823
:1046F0009C69C4F340149B69C3F30013B4E70097AB
:104700002B46002220213046FFF7F1FE58BB3268CD
:104710002023D36186F84130002386F84030BAE781
:104720003268536843F48043536000972B4600225D
:1047300020213046FFF7DBFEC8B933682022DA615A
:10474000C3E7202386F84130736C43F02003736481
:10475000002386F8403001209DE702209BE70220DD
:1047600099E7022097E7012095E7012093E70120D0
:1047700091E7000070B582B0044690F84100C0B2E5
:10478000202849D10D4694F84010012946D0012136
:1047900084F84010212184F84110102184F842103F
:1047A0000021616462626385069BE3621C4B636364
:1047B000638D9BB2FF2B0ED9FF2323854FF08076AC
:1047C000236B112B0BD1069BAA2B08D0B3F52A4FD4
:1047D00005D000230CE0638D2385E66AF0E72046D0
:1047E000FFF776FE638D9BB2FF2B13D8E66A0D4B65
:1047F0000093334694F8282029462046FFF7D1FD40
:10480000002584F8405001212046FFF7E9FD2846A5
:1048100002B070BD034BEBE70220F9E70220F7E797
:10482000CD5100080020008070B582B0044690F899
:104830004100C0B2202849D10D4694F8401001290A
:1048400046D0012184F84010222184F84110102123
:1048500084F842100021616462626385069BE36212
:104860001C4B6363638D9BB2FF2B0ED9FF23238503
:104870004FF08076236B122B0BD1069BAA2B08D00E
:10488000B3F52A4F05D000230CE0638D2385E66A3B
:10489000F0E72046FFF71CFE638D9BB2FF2B13D879
:1048A000E66A0D4B0093334694F8282029462046AB
:1048B000FFF777FD002584F8405002212046FFF7DE
:1048C0008FFD284602B070BD034BEBE70220F9E7ED
:1048D0000220F7E7CD51000800240080F8B5044617
:1048E00090F8410000F0280028285AD10F461646BB
:1048F0001D4601B122B94FF400736364012051E0F9
:1049000048F201012046FFF7ABFD94F84030012B3F
:1049100049D0012384F8403094F84130DBB22A2B8F
:1049200024D0292384F84130202384F84230002306
:1049300063642268536823F40043536067626685AA
:10494000638D2385E562194B636323689A6912F4CA
:10495000803F01D00822DA61002584F8405048F2F7
:1049600001012046FFF73CFD28461BE002212046BE
:10497000FFF776FD23681A6812F4004FD1D01A6849
:1049800022F400421A60E36B002BCAD0084A9A63F3
:10499000E06BFFF7BBFC0028C3D0E06B836B98474C
:1049A000BFE70120F8BD0220FCE700BF514F00081F
:1049B0001D560008F8B5044690F8410000F02800A4
:1049C00028285AD10F4616461D4601B122B94FF488
:1049D00000736364012051E048F202012046FFF7B2
:1049E0003FFD94F84030012B49D0012384F840303A
:1049F00094F84130DBB2292B24D02A2384F84130AB
:104A0000202384F84230002363642268536823F42F
:104A10000043536067626685638D2385E562194BA9
:104A2000636323689A6912F4803F01D10822DA6136
:104A3000002584F8405048F202012046FFF7D0FCE0
:104A400028461BE001212046FFF70AFD23681A686B
:104A500012F4804FD1D01A6822F480421A60A36BFE
:104A6000002BCAD0084A9A63A06BFFF74FFC0028BE
:104A7000C3D0A06B836B9847BFE70120F8BD02202D
:104A8000FCE700BF514F00081D56000808B590F81C
:104A90004130DBB2202B01D0022008BD282380F852
:104AA0004130044B43634FF40041FFF799FC002071
:104AB000F3E700BF514F000808B5036899691A6809
:104AC000436B03B1984708BD7047704738B504463B
:104AD000002380F8423090F84130DBB2212B0FD018
:104AE000202380F84130122303630025456302210F
:104AF000FFF7B6FC84F840502046FFF7E6FF38BDCC
:104B0000202380F8413011230363002545630121F0
:104B1000FFF7A6FC84F840502046FFF7D5FFEEE7EC
:104B200010B5044603681A68002180F8421012F498
:104B3000804F0ED01A6822F480421A6094F84130F7
:104B4000DBB2292B0DD094F84130DBB22A2B18D0E0
:104B500010BD12F4004FF1D01A6822F400421A601E
:104B6000ECE7282384F841302123236301212046E8
:104B7000FFF776FC002384F840302046FCF739FB31
:104B8000E6E7282384F841302223236302212046CC
:104B9000FFF766FC002384F840302046FCF70EFB4C
:104BA000D6E7F8B5044690F8413003F02803282BE7
:104BB00006D003680822DA61002380F84030F8BD8F
:104BC00003689E69C6F300469A69120C02F0FE055E
:104BD0009A68C2F30902DF6807F0FE07C16802297C
:104BE00022D185EAD21515F0060F10D1816C013162
:104BF0008164816C0229E2D1002181640820D8619E
:104C000084F8401031462046FCF784FAD7E74FF489
:104C10000041FFF725FC002384F840303A46314636
:104C20002046FCF777FACAE74FF40041FFF718FC7B
:104C3000002384F840302A4631462046FCF76AFAC1
:104C4000BDE7000010B50446174BC36200230363A1
:104C5000202280F8412080F84230436311F0040F95
:104C600013D003685A6A436A1A70436A0133436275
:104C7000038D53B1013B0385438D9BB2013B9BB236
:104C80004385436C43F00403436448F20301204628
:104C9000FFF7E6FB23681022DA61002384F8403036
:104CA0002046FCF772FA10BD0000FFFF7047704706
:104CB000704708B590F84130DBB2602B06D0002376
:104CC000036380F84030FCF79BFA08BD202380F88E
:104CD00041300023036380F84030FFF7E9FFF4E739
:104CE00010B5044690F84130002084F842003B4A59
:104CF000E2626085626C0A436264283BDBB2022B8D
:104D000019D803212046FFF7ABFB282384F8413054
:104D1000334B6363236BA26B1AB1112B1BD0212B76
:104D200019D0E26B1AB1122B36D0222B34D0204688
:104D3000FFF7BFFF10BD48F203012046FFF790FBCD
:104D400094F84130DBB2602B02D0202384F841304C
:104D500000236363DEE723681A6812F4804F03D0F0
:104D60001A6822F480421A60A06BFFF7F7FA012854
:104D70000ED0A36B1B4A9A63002384F84030A06BCB
:104D8000FFF7C4FA0028D5D0A06B836B9847D1E712
:104D90002046FFF78EFFCDE723681A6812F4004F14
:104DA00003D01A6822F400421A60E06BFFF7D6FACB
:104DB00001280ED0E36B0B4A9A63002384F840303D
:104DC000E06BFFF7A3FA0028B4D0E06B836B984741
:104DD000B0E72046FFF76DFFACE700BF0000FFFF24
:104DE000514F00081D56000870B504460D46026874
:104DF000166890F84130DBB22021D161212B0DD013
:104E0000292B0BD0222B01D02A2B0ED148F20201E4
:104E10002046FFF725FB2223236306E048F2010129
:104E20002046FFF71DFB212323632268536843F4C8
:104E3000004353602268536823F0FF7323F48B33DD
:104E400023F4FF7323F0010353602046FFF798FA21
:104E500016F4804F40D02268136823F48043136017
:104E6000A36B1BB11B685B689BB2638515F0040FD5
:104E700011D025F0040523685A6A636A1A70636AC0
:104E800001336362238D33B1013B2385638D9BB274
:104E9000013B9BB26385638D9BB21BB1636C43F096
:104EA00004036364002384F842306363636C1BBBB8
:104EB000E36A13F5803F2DD194F84130DBB2222B09
:104EC00038D0202384F841300023236384F8403015
:104ED0002046FCF78EF92CE016F4004FC6D022686D
:104EE000136823F400431360E36B002BBED01B68F0
:104EF0005B689BB26385B9E7616C2046FFF7F0FE03
:104F000094F84130DBB2282B13D129462046FFF715
:104F100099FE0EE02046FFF703FE0C4BE3622023D0
:104F200084F841300023236384F840302046FCF7A6
:104F30002CF970BD202384F841300023236384F8CA
:104F400040302046FCF73AF9F3E700BF0000FFFFCE
:104F5000F8B5C76A90F84030012B00F09E800446F7
:104F60000D461646012380F8403011F0200F02D084
:104F700012F0200F19D115F0100F3ED016F0100FBF
:104F80003BD0638D9BB243BB94F84130DBB2282BFE
:104F90000ED094F84130DBB2292B11D023681022B7
:104FA000DA61002084F84000F8BDFFF71DFFE2E75A
:104FB000B7F1007FEDD129462046FFF743FEF0E729
:104FC00017F5803FEAD023681022DA612046FFF708
:104FD000D7F92046FFF7A4FDE3E723681022DA6142
:104FE000636C43F00403636417B1B7F1807FD8D1D9
:104FF000616C2046FFF774FED3E715F0040F1FD055
:1050000016F0040F1CD0638D9BB273B123685A6AEB
:10501000636A1A70636A01336362238D013B2385DF
:10502000638D9BB2013B9BB26385638D9BB2002B6A
:10503000B7D117F5803FB4D02046FFF771FDB0E738
:1050400015F0080F02D016F0080F18D115F0020F56
:10505000A7D016F0020FA4D0638D9BB2A3B1626AF1
:10506000236812789A62636A01336362638D9BB22C
:10507000013B9BB26385238D013B238591E7294644
:105080002046FFF78EFD8CE7B7F1807F01D0002F1F
:1050900087D12046FFF744FD83E7022084E730B53F
:1050A00083B004460D4603682022DA6190F841304F
:1050B000DBB2212B33D090F84130DBB2222B34D03D
:1050C0002268536823F0FF7323F48B3323F4FF73B8
:1050D00023F00103536000236363A3F58033E3628D
:1050E00015F0100F06D023681022DA61636C43F0CC
:1050F0000403636494F84130DBB2602B1BD020467C
:10510000FFF73EF9626C94F84130DBB2602B00D0BF
:10511000D2B1616C2046FFF7E3FD03B030BD012141
:10512000FFF79EF911232363CAE70221FFF798F9DD
:1051300012232363C4E715F0040FE0D023685B6AF1
:10514000DBB20193019BDAE794F84130DBB2212B0B
:1051500017D094F84130DBB2222BDED1202384F823
:1051600041300023236394F84230DBB2402B24D03B
:10517000002384F8423084F840302046FFF7A5FC35
:10518000CBE7202384F841300023236394F8423096
:10519000DBB2402B08D0002384F8423084F8403042
:1051A0002046FFF791FCB8E7002384F8423084F8EA
:1051B00040302046FFF77AFDAFE7002384F8423005
:1051C00084F840302046FFF772FDA6E790F84030A3
:1051D000012B00F0B98070B582B004460D4616462A
:1051E000012380F8403011F0100F02D012F0100FA0
:1051F00022D115F0040F29D016F0040F26D025F087
:10520000040523685A6A636A1A70636A0133636229
:10521000238D013B2385638D9BB2013B9BB263854C
:1052200015F0200F03D016F0200F40F088800020EA
:1052300084F8400002B070BD03681022DA61436C4C
:1052400043F004034364FFF79BF8E9E715F0020F0E
:1052500012D016F0020F0FD0626A236812789A6299
:10526000636A01336362238D013B2385638D9BB2A7
:10527000013B9BB26385D3E715F0800F3FD016F05A
:10528000400F3CD0638D9BB25BB3238D4BBB236837
:105290005968C1F30901638D9BB2FF2B0ED8628D53
:1052A00092B22285E36A13F5803F11D0E36A0020B1
:1052B0000090D2B22046FFF774F8B1E7FF222285B2
:1052C000002300934FF080732046FFF76AF8A7E7AA
:1052D000002300934FF00073D2B22046FFF761F82D
:1052E0009EE723685B6813F0007F03D12046FFF739
:1052F000EDFB95E740212046FFF7F2FC90E715F023
:10530000400F8DD016F0400F8AD0638D9BB28BB9C1
:1053100023685A6812F0007F82D1E26A12F5803F5A
:1053200004D15A6842F480425A6079E72046FFF778
:10533000CDFB75E740212046FFF7D2FC70E72946F8
:105340002046FFF7ACFE72E702207047F8B5C76A47
:1053500090F84030012B00F0898004460D46164637
:10536000012380F8403011F0200F02D012F0200FFE
:1053700017D115F0100F6AD016F0100F67D0C6F3D2
:10538000803216F4804F02D116F4004F5BD0E36BED
:1053900053B116F4004F09D01B685B683BB3002182
:1053A00005E0FFF721FDE4E7002100E00021A36B09
:1053B0001BB112B11B685B68DBB1D1B92368102245
:1053C000DA61636C43F00403636494F84130DBB248
:1053D00017B1B7F1807F40D1212B2DD0292B2BD0B5
:1053E000222B01D02A2B29D12223236326E001215D
:1053F000DDE794F84130DBB2282B08D094F8413037
:10540000DBB2292B0BD023681022DA6125E0B7F13B
:10541000007FF3D129462046FFF714FC1DE017F565
:10542000803FF0D023681022DA612046FEF7A8FF03
:105430002046FFF775FB10E021232363616C2046B3
:10544000FFF74EFC09E023681022DA6105E015F051
:10545000080F02D016F0080F03D1002084F8400096
:10546000F8BD29462046FFF79CFBF6E70220F7E748
:1054700090F84030012B00F09A8010B582B00446BD
:10548000012380F8403011F0100F02D012F0100FFD
:1054900032D111F0800F60D012F0400F5DD0226841
:1054A000136823F040031360638D9BB2002B46D03A
:1054B00023685968C1F30901638D9BB2FF2B2DD975
:1054C000FF2323854FF080730022009294F8282058
:1054D0002046FEF766FF638D9BB2228D9B1A9BB21E
:1054E000638594F84130DBB2222B22D02268136806
:1054F00043F4804313600CE003681022DA61436CCC
:1055000043F0040343642021FEF76AFF2046FEF7C0
:1055100037FF002084F8400002B010BD638D238562
:10552000E36A13F5803F01D0E36ACDE74FF00073E3
:10553000CAE72268136843F400431360E9E723686D
:105540005B6813F0007F03D12046FFF7BFFAE0E766
:1055500040212046FFF7C4FBDBE711F0400F1CD0D1
:1055600012F0400F19D0638D9BB28BB923685A6833
:1055700012F0007FCDD1E26A12F5803F04D15A6863
:1055800042F480425A60C4E72046FFF79FFAC0E722
:1055900040212046FFF7A4FBBBE711F0200FB8D055
:1055A00012F0200FB5D02046FFF779FDB1E70220B9
:1055B000704710B502689369116813F4807F09D0B1
:1055C00011F0800F06D0446C44F0010444644FF4A1
:1055D0008074D46113F4806F0AD011F0800F07D06B
:1055E000426C42F00802426402684FF48064D46165
:1055F00013F4007F0AD011F0800F07D0436C43F002
:105600000203436403684FF40072DA61416C11F0E5
:105610000B0F00D110BDFFF763FBFBE708B5806AF5
:10562000836B0BB100229A63C36B0BB100229A63A8
:10563000FFF73FFB08BD90F841007047406C704792
:10564000024A136843F4807313607047007000408F
:10565000024B186800F4C060704700BF0070004043
:10566000B0F5007F0FD01F4B1B6803F4C063B3F588
:10567000806F34D01B4A136823F4C06343F4806303
:10568000136000207047174B1B6803F4C063B3F529
:10569000007F20D0134A136823F4C06343F40073DF
:1056A0001360114B1B68322202FB03F30F4AA2FB6B
:1056B00003239B0C013300E0013B0A4A526912F4B8
:1056C000806F01D0002BF7D1064B5B6913F4806F1C
:1056D00003D100207047002070470320704700204E
:1056E000704700BF007000406000002083DE1B4355
:1056F000024A536843F400735360704700700040DF
:1057000030B583B00446204B9B6D13F0805F0BD007
:10571000FFF79EFFB0F5007F17D0802C1FD82DD04B
:10572000702C2DD000211BE0174DAB6D43F0805342
:10573000AB65AB6D03F080530193019BFFF788FFCE
:10574000AB6D23F08053AB65E4E7802C03D9A02C2C
:1057500003D9022104E0002102E0012100E003213D
:105760000A4A136823F007030B431360136803F01E
:1057700007038B4206D1002003B030BD0221EFE7C2
:105780000121EDE70120F7E7001002400020024070
:10579000284A9368D26802F0030213F00C030AD07F
:1057A0000C2B06D0042B1FD0082B20D00020024643
:1057B00010E0012AF6D11F4A126812F0080F0CD12E
:1057C0001C4AD2F89420C2F303221B4951F822202C
:1057D00043B100200C2B0DD07047164A1268C2F35B
:1057E0000312F2E71046F5E714480022F2E71448E6
:1057F0000022EFE70F4BDB6803F00303022B16D008
:10580000032B00D10E4A0B49C868C0F30210431C99
:10581000C868C0F3062002FB00F0B0FBF3F0CB68D1
:10582000C3F3416301335B00B0FBF3F0D4E7034AF9
:10583000E9E700BF0010024028D700080024F40068
:1058400000127A00002800F0F182F0B583B004461F
:10585000964B9D6805F00C05DE6806F003060368AC
:1058600013F0100F5AD0E5B10C2D18D0A369002BFE
:1058700000F0BB808D4A136843F001031360FDF70D
:105880000BFD0746894B1B6813F0020F40F09A800E
:10589000FDF702FDC01B0228F4D90320D1E2012E3E
:1058A000E4D1824B1B6813F0020F03D0A369002BD5
:1058B00000F0BE82206A7D4B1B6813F0080F5BD09E
:1058C0007A4B1B6803F0F00398425CD8774B1A6858
:1058D00042F008021A601A6822F0F002216A0A43B4
:1058E0001A605A6822F47F42E16942EA01225A6052
:1058F000002D60D0FFF74CFF6C4B9B68C3F3031384
:105900006B4AD35C03F01F03D8406A4B18606A4BA4
:105910001868FDF77DFC002840F09382236813F09F
:10592000010F00F08180082D75D00C2D71D06368B7
:10593000B3F5803F00F09780B3F5A02F00F0998079
:105940005A4B1A6822F480321A601A6822F48022B4
:105950001A606368002B00F09980FDF79DFC0746F4
:10596000524B1B6813F4003F5ED1FDF795FCC01B42
:105970006428F5D9032064E24C4BD3F894301B091A
:1059800003F0F003A0E7FFF7BBFE002840F05282CF
:10599000464B1A6842F008021A601A6822F0F002B8
:1059A000216A0A431A605A6822F47F42E16942EA96
:1059B00001225A609EE7206AFFF7A2FE002899D0D4
:1059C00001203EE2394B1A6842F008021A601A6858
:1059D00022F0F002216A0A431A605A6822F47F42D8
:1059E000E16942EA01225A6098E7304A136823F0DD
:1059F00001031360FDF750FC07462C4B1B6813F0A6
:105A0000020F8BD0FDF748FCC01B0228F5D90320FC
:105A100017E2032E8BD1254B1B6813F4003F03D0F4
:105A20006368002B00F00882236813F0020F58D03F
:105A3000042D45D00C2D41D0E368002B77D01B4AB4
:105A4000136843F480731360FDF726FC0646174B7A
:105A50001B6813F4806F61D1FDF71EFC801B0228C8
:105A6000F5D90320EDE1114A136843F48033136044
:105A70006FE703F18043A3F53C331A6842F48022B8
:105A80001A601A6842F480321A6062E7FDF704FC7B
:105A90000746064B1B6813F4003FC5D0FDF7FCFB1F
:105AA000C01B6428F5D90320CBE100BF00100240E1
:105AB00010D700086000002020010020022EBBD17A
:105AC000A34B1B6813F4806F03D0E368002B00F036
:105AD000B5819F4A536823F0F853216943EA016373
