:020000040800F2
:10000000008001202D7E00087D7E00087D7E000896
:100010007D7E00087D7E00087D7E000800000000D7
:100020000000000000000000000000007D7E0008CD
:100030007D7E0008000000007D7E00082F0D000876
:100040007D7E00087D7E00087D7E00087D7E0008A4
:100050007D7E00087D7E0008650F00086F0F000898
:10006000790F0008830F00088D0F00087D7E0008BF
:100070007D7E00087D7E00087D7E00087D7E000874
:100080007D7E00087D7E00087D7E00087D7E000864
:100090007D7E00087D7E00087D7E0008970F0008A9
:1000A0002D57000859560008415700087956000896
:1000B0008D560008A1560008B55600087D7E000840
:1000C0007D7E00087D7E00087D7E00087D7E000824
:1000D0007D7E0008651E00087D1E0008951E000834
:1000E000AD0F00087D7E00087D7E00087D7E000843
:1000F000055700087D7E0008195700087D7E00081E
:100100007D7E00087D7E0008C95600087D7E0008BF
:10011000AD1E0008C51E0008DD560008F156000897
:100120007D7E00087D7E00087D7E00087D7E0008C3
:100130007D7E00087D7E00087D7E00087D7E0008B3
:100140007D7E00087D7E00087D7E00087D7E0008A3
:100150007D7E00087D7E0008DD1E00087D7E000893
:100160007D7E00087D7E00087D7E00087D7E000883
:100170007D7E00087D7E00087D7E00080000000076
:080180007D7E00087D7E000871
:10019000034613F8012B002AFBD1181A01387047C7
:1001A00001F0FF01102A2BDB10F0070F08D010F828
:1001B000013B013A8B422DD010F0070F42B3F6D12C
:1001C000F0B441EA012141EA014122F007047FF045
:1001D00000070023F0E80256083C85EA010586EA9C
:1001E000010685FA47F5A3FA87F586FA47F6A5FAD8
:1001F00087F68EB9EED1F0BC01F0FF0102F00702E4
:1002000032B110F8013B013A83EA010313B1F8D18E
:100210000020704701387047002D06BF354603386F
:10022000073815F0010F07D1013015F4807F02BFA8
:10023000013015F4C03F0130F0BC0138704700BFF9
:1002400053B94AB9002908BF00281CBF4FF0FF313D
:100250004FF0FF3000F00CB8ADF1080C6DE904CEA2
:1002600009F022FCDDF804E0DDE9022304B0704768
:10027000704700BF10B5054C237833B9044B13B158
:100280000448AFF300800123237010BD8C010020CF
:1002900000000000809D000808B5034B1BB1034916
:1002A0000348AFF3008008BD00000000900100206B
:1002B000809D0008012800D070474FF6FF739942D7
:1002C000FAD100B583B033230093C222C32104487E
:1002D00007F090FE034807F0D7FA03B05DF804FB7F
:1002E000A80100201403002010B58AB006224FF4A4
:1002F000E1313E4808F088F801211C2008F0F6F9A9
:1003000001211D2008F0F2F90121C42008F0EEF9C6
:100310000C2008F099F90121C42008F061FA0120AD
:1003200008F0E0FAC421324807F022FBF0B90121BD
:100330001D2008F055FA2F4B1B78FBB92D4B1B786D
:1003400023B12D4807F0EBFA002833D101211D20FD
:1003500008F046FA294C2A4A2A49204607F0C0FCF0
:100360000121204607F0F8FC0AB010BD00211D2035
:1003700008F036FA1F4B01221A70DCE71723224AD5
:100380001B4901A807F0A6FB1B4A029B5360039B75
:100390009360049BD36005A90C23103204E011F88C
:1003A000010B02F8010B013B002BF8DA124B099A02
:1003B0001A62C3E7104807F08DFA092808D90E4CD5
:1003C000204607F087FA0146204607F071FA08E058
:1003D000094C0021204607F06BFA0C49204608F032
:1003E000ADF8054807F08FFAB4E700BFA801002078
:1003F000880700201003002014030020EC070020D1
:10040000C0E0F30140420F00C89D0008D09D0008E5
:1004100010B5002413E00B4B185D08F03DF907EE12
:10042000900AF8EE677A9FED087A67EE877AFDEE1C
:10043000E77A064B17EE902A23F814200134092C92
:10044000E9DD10BD449E0008FF3F4E3FFC02002046
:1004500008B54FF6FF710120FFF72CFF08BD000023
:100460002DE9F04194B0FFF7D3FF08F037FA0246C8
:100470004D4BB3F90210B3F90400B3F90640B3F9D8
:100480000850B3F90A60B3F90C70B3F90EC0B3F9B0
:1004900010E0B3F91280CDF82080CDF81CE0CDF843
:1004A00018C0059704960395029401900091B3F942
:1004B00000303E493E4808F062F83E4B1B78002B66
:1004C0005BD03D4807F02BFA002836D008F006FA3A
:1004D0000246354BB3F90210B3F90400B3F90640F4
:1004E000B3F90850B3F90A60B3F90C70B3F90EC050
:1004F000B3F910E0B3F91280CDF82080CDF81CE0FC
:10050000CDF818C0059704960395029401900091C8
:10051000B3F900302549284808F031F800211D20A2
:1005200008F05EF9254A138801339BB21380322B01
:1005300027D9214807F04EF923E01723204A214903
:100540000BA807F0C7FA1C4A0C9B53600D9B9360E5
:100550000E9BD3600FA90C23103204E011F8010B9D
:1005600002F8010B013B002BF8DA134B139A1A62C5
:1005700001211D2008F034F903E001211D2008F0BD
:100580002FF91C2008F06AF9B0FA80F149091C2003
:1005900008F026F90C4807F0C9FB322008F0A2F950
:1005A00014B0BDE8F08100BFFC020020149E0008DA
:1005B000A8010020100300201403002038030020AD
:1005C000C89D000888070020EC07002000B589B00E
:1005D00007286AD8DFE800F004131F2B37434F5D6C
:1005E000334BDA6C42F00102DA64DB6C03F0010396
:1005F0000093009B4FF0904009B05DF804FB2C4B3A
:10060000DA6C42F00202DA64DB6C03F0020301935D
:10061000019B2848F0E7264BDA6C42F00402DA64CA
:10062000DB6C03F004030293029B2348E4E7204BB6
:10063000DA6C42F00802DA64DB6C03F0080303931F
:10064000039B1E48D8E71A4BDA6C42F01002DA64BA
:10065000DB6C03F010030493049B1948CCE7144BA4
:10066000DA6C42F02002DA64DB6C03F020030593BD
:10067000059B1448C0E702F055FD0D4BDA6C42F0C3
:100680004002DA64DB6C03F040030693069B0E48DD
:10069000B2E7074BDA6C42F08002DA64DB6C03F0FD
:1006A00080030793079B0948A6E70020A4E700BF43
:1006B000001002400004004800080048000C0048F8
:1006C000001000480014004800180048001C0048B2
:1006D00008B51D4900F0FAFDC0F3C43012282DD82A
:1006E000DFE800F02D2F0A0C0E10121416181A1C39
:1006F0001E20222426282A00144821E014481FE046
:1007000014481DE014481BE0144819E0144817E091
:10071000144815E0144813E0144811E014480FE0A1
:1007200014480DE014480BE0144809E0144807E0B1
:10073000144805E0144803E0144801E0FEE70120F6
:1007400008BD1348FCE700BF509F00080400600884
:100750000800900C1000C0102000F0144000201978
:100760008000501D000180210002B0250004002AF5
:100770000008302E00106032002090360040C03A51
:100780000080F03E00002143000052470000844BEF
:100790000200300441F20203984208D041F2030300
:1007A000984206D041F20103984204D0FEE7034884
:1007B0007047034870470348704700BF010000803E
:1007C000000084CB000052C708B5074900F07EFD49
:1007D000C0F3C430012802D0022802D0FEE7002076
:1007E00000E0102008BD00BF0CA100080268094B02
:1007F0009A4200D0704703F5CE339A6B42F0005214
:100800009A639A6B22F000529A639A6D22F000521A
:100810009A65EFE70074004010B586B004460A49B7
:1008200000F02CFD019060B12046FFF7CDFF01469E
:1008300008B1102805D101A802F0B1FB01A802F00F
:10084000A0FB06B010BD00BF0CA1000800B583B02E
:100850000D4BDA6C42F40052DA64DA6C02F40052A6
:100860000192019AD3F8882042F04052C3F88820C0
:10087000064B186810F4805F02D003B05DF804FBEB
:10088000034900F0DDFCF8E70010024020000020E2
:10089000509F00080A4BDA6A42F40052DA62DA6AC0
:1008A00022F40052DA62DA6A42F40052DA62DA6A58
:1008B00022F40052DA62DA6C22F40052DA647047F1
:1008C00000100240F0B5A3B004460D46642200219A
:1008D00009A808F0A5F90023039304930593069350
:1008E00007930893ADF80A30019314F4805F03D0A6
:1008F00041F203039C421AD98649204600F0BEFC0F
:10090000099001A92046FFF7E3FE06460227099B4E
:10091000002B00F0B2814FF440330A93082D41D0F0
:100920000A2D42D0062D0AD000230B9309E07A4B02
:1009300009932046FFF72EFF06460727E7E718230F
:100940000B9300230C930D9304220E928DF83C30F0
:100950008DF83D30012210928DF84430129313939C
:1009600014938DF854304FF4805216928DF85C3009
:100970001E931C938DF87430684B1C6009A801F01D
:100980000FFB002840F07B810396099B624A93424B
:100990000ED0634A934264D0624A934200F0E880EA
:1009A00000206DE110230B93CBE708230B93C8E7DE
:1009B0005D4A964200F01D815C4A964200F0198122
:1009C0005B4A964200F015815A4A964200F0118126
:1009D00002F186621032964200F00B81564A96422E
:1009E00000F0078102F186624032964200F00181F8
:1009F000524A964200F0FD8002F1866202F5807252
:100A0000964200F0F6804E4A964200F0F28002F1E3
:100A1000042202F54012964200F0EB8002F1866259
:100A200002F50062964200F0E480464A964200F0E9
:100A3000E080454A964200F0DC80444A964200F04D
:100A4000D880434A964200F0D480424A964200F051
:100A5000D080414A964200F0CC80404A964298D1DC
:100A6000C7E0314A964200F0C480304A964200F016
:100A7000C0802F4A964200F0BC802E4A964200F079
:100A8000B88002F186621032964200F0B2802A4AA3
:100A9000964200F0AE8002F186624032964200F04B
:100AA000A880264A964200F0A48002F1866202F5F0
:100AB0008072964200F09D80214A964200F0998013
:100AC00002F1042202F54012964200F0928002F1F7
:100AD000866202F50062964200F08B80194A9642C7
:100AE00000F08780184A964200F08380174A9642A9
:100AF0007FD0174A96427CD0194A964279D0194A3B
:100B0000964276D0184A964273D0184A96427FF49D
:100B100043AF6EE0509F000800000450200000200A
:100B20000001045000020450020030040400600878
:100B30000800900C1000C010400020190001802116
:100B40000004002A002090360040C03A0080F03EA9
:100B50000000214301000080000052C7000084CB48
:100B6000000052470000844B00005AC700008CCBA5
:100B7000464B9E423DD0464B9E423AD0454B9E420C
:100B800037D0454B9E4234D0444B9E4231D003F186
:100B9000866340339E422CD0414B9E4229D003F1C4
:100BA000866303F580739E4223D03E4B9E4220D045
:100BB00003F1042303F540139E421AD003F1866328
:100BC00003F500639E4214D0374B9E4211D0374B41
:100BD0009E420ED0364B9E420BD0364B9E4208D0E2
:100BE000354B9E4205D0354B9E4202D0344B9E423F
:100BF00048D10623049305977F2306930423079384
:100C00000023089303A909A801F058FB08B10020AC
:100C100036E07F2109A802F05EF808B100202FE03D
:100C200009A801F093FE08B1002029E00A2109A8D3
:100C300001F0B8FA08B1002022E009A801F096FD01
:100C400010F4007F05D109A802F024F840B100207B
:100C500016E009A801F02EFB83B2ADF80A30F2E7E6
:100C600009A801F037FF78B9164A936823F0E073BA
:100C70009360BDF80A0080B202E0002000E000208E
:100C800023B0F0BD0020FBE70020F9E702003004AC
:100C9000040060080800900C1000C01040002019EB
:100CA000000180210004002A002090360040C03A54
:100CB0000080F03E000052C7000084CB0040C0BA64
:100CC0000080F0BE0003045070B50546134900F0E3
:100CD000D5FA04F0E1FB0446114B53F8203063B120
:100CE0000F4B53F824301C6834B1204604F024FC28
:100CF000B421204604F06CFD70BD0849284600F080
:100D0000BDFA0646B42004F05FFD0546314604F006
:100D10008FFC034B53F824301D60E1E780A20008EC
:100D20009804002008B501F035F908BD704708B5F2
:100D300001F024F902F0A9F8FFF7F8FF08BD000060
:100D400010B592B004464422002101A807F068FFC4
:100D500002F090F9032C0DD8DFE804F002101D2FEB
:100D60001E4BD3F8943013F0020F03D108230193E4
:100D700001230693019B5BBB12B010BD174B1B6890
:100D800013F4806FF6D1022301934FF48073049320
:100D900010230593EEE7114BD3F8903013F0020FB8
:100DA000E8D10E4AD2F8903023F01803C2F8903000
:100DB0000423019301230393DCE7084B1B6813F41E
:100DC000003FD7D1012301934FF480330293D1E741
:100DD00001A802F051FA0028CED0FEE70010024030
:100DE0007047000084B00F4B9A6D42F080529A65B4
:100DF0009A6D02F080520192019A1A6E42F001023D
:100E00001A661A6E02F001020292029A9A6C42F479
:100E100080529A649B6C03F480530393039B04B049
:100E2000704700BF001002400D4BD3F8FC3013F0A8
:100E3000807F06D10A4AD2F8FC3043F08073C2F8B2
:100E4000FC30084B00225A601A6842F001021A6016
:100E500000BF00BF00BF5868B0FA80F0400970477B
:100E600000ED00E0001000E008B5FFF7BBFFFFF762
:100E7000DBFF01F073F8FFF7B3FF06F081FF0248D4
:100E800002F008F808BD00BF24000020034600203F
:100E900002E05B080130C0B2012BFAD170470000BC
:100EA00010B5012805D018B94FF6FF73994246D006
:100EB00010BD4FF6FF739942F5D1284B06221A70E8
:100EC0000022DA6007241C751A62082483F828407F
:100ED0005A63092483F83C409A640A2483F85040FA
:100EE000DA65172483F864401A6783F87840C3F8FA
:100EF000842083F88C40C3F8982083F8A040C3F87E
:100F0000AC2083F8B440C3F8C020282483F8C8403C
:100F1000C3F8D42083F8DC40C3F8E82083F8F0401D
:100F2000C3F8FC2083F80441C3F8102183F818416A
:100F3000C3F8242183F82C41C3F83821B3E7084CC7
:100F400002E0032201469847044B9C42B0D0143C77
:100F5000201D8368002BF4D1F6E700BF3C0300207E
:100F60007C04002008B5012002F076F808BD08B521
:100F7000022002F071F808BD08B5042002F06CF8F8
:100F800008BD08B5082002F067F808BD08B51020B4
:100F900002F062F808BD10B5202403E0A0B202F010
:100FA0005BF86400B4F5007FF8D910BD10B54FF4BC
:100FB000806403E0A0B202F04FF86400B4F5004F83
:100FC000F8D910BD08B5836813B1C368984708BD48
:100FD00008F0D2FE08B5FFF759FF00EB8003044884
:100FE00000EB8300043083680BB1FFF7EBFF08BD13
:100FF0003C03002008B54FF6FF710120FFF750FFBA
:1010000008BD08B54FF6FF710020FFF749FF08BD86
:10101000B0F1FF3F07D00B68B3F1FF3F05D083422B
:1010200005D00C31F7E70020704700207047012001
:10103000704700002DE9F0410546C1F30628C0F3D2
:10104000031005F00F027D4B53F82260B5F1FF3F0E
:1010500000D1FEE70C4601F00707FFF7B7FA8268F8
:1010600096FAA6F3C3B1B3FA83F35B00032101FA46
:1010700003F322EA030296FAA6F37BB1B3FA83F3F1
:101080005B00032101FA03F3134383608F424ED8C0
:10109000DFE807F04E4E064E2023E6E72023EFE779
:1010A000B8F17F0F01D1394643E005F00F02634BE1
:1010B00053F8223015F0080F1DD0416A1B0A93FA2D
:1010C000A3F2A2B1B2FA82F292000F2505FA02F25F
:1010D00021EA020293FAA3F35BB1B3FA83F39B0014
:1010E00008FA03F842EA08024262394621E0202267
:1010F000EAE72023F3E7016A93FAA3F29AB1B2FA7E
:1011000082F292000F2505FA02F221EA020293FA16
:10111000A3F353B1B3FA83F39B0008FA03F842EA4E
:1011200008020262E1E72022EBE72023F4E7FEE772
:101130003946026896FAA6F37BB3B3FA83F35B00F1
:10114000032505FA03F322EA030296FAA6F333B362
:10115000B3FA83F35B0001FA03F31343036014F45F
:10116000001F1ED0C36A3343C362013F012F1DD944
:10117000C4F30114012C25D0022C40D0C36896FA88
:10118000A6F6002E57D0B6FA86F67600032202FAAB
:1011900006F623EA0603C3602BE02023CFE72023D3
:1011A000D8E7C36A23EA0603C362DEE714F0080F38
:1011B00003D0436833434360DAE7436823EA060316
:1011C0004360D5E7C26896FAA6F3A3B1B3FA83F3F6
:1011D0005B00032101FA03F322EA030396FAA6F661
:1011E0005EB1B6FA86F67600012202FA06F63343BD
:1011F000C360BDE8F0812023EAE72026F3E7C26858
:1012000096FAA6F39BB1B3FA83F35B00032101FACC
:1012100003F322EA030396FAA6F656B1B6FA86F667
:101220007600022202FA06F63343C360E1E7202388
:10123000EBE72026F4E72026A7E700BF509E000832
:10124000B0F1FF3F08D008B50B68B3F1FF3F08D0FD
:10125000834202D00C31F7E770478968FFF7EAFE56
:1012600008BDFEE700E00C310B68B3F1FF3F03D08F
:101270008342F8D14868704700207047B0F1FF3FC3
:1012800003D008B5FFF7EEFF08BD0020704700E06F
:101290000C314B681BB18342FAD1086870474FF09C
:1012A000FF30704718B108B5FFF7F1FF08BD4FF0E8
:1012B000FF307047034600E00C310868B0F1FF3F93
:1012C00003D09842F8D1886870477047B0F1FF3F6B
:1012D00003D008B5FFF7EEFF08BD7047884204D081
:1012E00010B111B10020704708467047114B4FF004
:1012F00000629A60D3F8882042F47002C3F8882014
:101300000D4B1A6842F001021A60002199601A68B8
:1013100022F0A85222F410221A604FF48052DA60B0
:101320001A6822F480221A60996140F2FF321A6230
:10133000704700BF00ED00E0001002400438704725
:101340008CB00268584B9A4229D00368B3F1804FA1
:1013500031D00268554B9A4239D00268544B9A42B8
:1013600041D00268534B9A4249D00268524B9A428C
:1013700051D00268514B9A4259D00268504B9A4260
:1013800061D002684F4B9A4269D002684E4B9A4234
:1013900071D002684D4B9A4279D00CB0704703F57A
:1013A00064431A6E42F400621A661B6E03F4006313
:1013B0000193019BC9E703F504339A6D42F00102E2
:1013C0009A659B6D03F001030293029BC1E703F54D
:1013D00003339A6D42F002029A659B6D03F002039B
:1013E0000393039BB9E703F502339A6D42F00402BD
:1013F0009A659B6D03F004030493049BB1E703F526
:1014000001339A6D42F008029A659B6D03F0080360
:101410000593059BA9E703F500339A6D42F010028E
:101420009A659B6D03F010030693069BA1E703F5F5
:10143000FE339A6D42F020029A659B6D03F0200303
:101440000793079B99E703F55C431A6E42F4005239
:101450001A661B6E03F400530893089B91E703F58B
:1014600050431A6E42F480321A661B6E03F48033C6
:101470000993099B89E703F54C431A6E42F4003245
:101480001A661B6E03F400330A930A9B81E703F587
:1014900048431A6E42F480221A661B6E03F48023BE
:1014A0000B930B9B79E700BF002C01400004004028
:1014B00000080040000C00400010004000140040F4
:1014C0000034014000400140004401400048014018
:1014D0000268374B9A4228D00368B3F1804F2AD074
:1014E0000268344B9A422CD00268334B9A422ED079
:1014F0000268324B9A4230D00268314B9A4232D065
:101500000268304B9A4234D002682F4B9A4236D050
:1015100002682E4B9A4238D002682D4B9A423AD03C
:1015200002682C4B9A423CD070472B4A136E23F42E
:1015300000631366D0E7284A936D23F00103936597
:10154000CEE7254A936D23F002039365CCE7224A48
:10155000936D23F004039365CAE71F4A936D23F04C
:1015600008039365C8E71C4A936D23F01003936545
:10157000C6E7194A936D23F020039365C4E7164A22
:10158000136E23F400531366C2E7134A136E23F459
:1015900080331366C0E7104A136E23F400331366DA
:1015A000BEE70D4A136E23F480231366BCE700BF29
:1015B000002C01400004004000080040000C0040E6
:1015C0000010004000140040003401400040014081
:1015D000004401400048014000100240B0F1FF3FCC
:1015E00034D0234B984234D018D8A3F540639842A6
:1015F00031D008D91F4B984231D003F5806398420F
:101600000BD136207047B0F1804F26D0A3F5806310
:10161000984201D11D207047FEE7FDE7164B984226
:101620001FD008D9154B98421FD003F5806398420C
:10163000F2D11A207047A3F5A053984213D003F5B6
:101640000063984201D12C207047E5E76FF00D0050
:101650007047372070471E2070471C20704732208B
:10166000704718207047192070471920704700BF35
:1016700000140040000C00400040014000440140C4
:10168000B0F1FF3F34D0234B984234D00CD9224BD9
:10169000984238D021D9214B984238D003F5806345
:1016A000984218D11A207047A3F54063984224D07D
:1016B00008D91B4B984224D003F5806398420BD184
:1016C00036207047B0F1804F19D0A3F5806398425F
:1016D00001D11D207047FEE7FDE7A3F5A053984216
:1016E00013D003F50063984201D12E207047F2E732
:1016F0006FF00D007047372070471E2070471C2088
:10170000704732207047182070471B2070471920FF
:10171000704700BF001400400040014000440140F9
:10172000000C0040F8B50446FFF708FE05462046C9
:10173000FFF706FE2068FFF751FF6A6D296D01F083
:1017400029FB2068FFF74AFF01F05CFB2768384659
:10175000FFF796FF06463846FFF740FF864200D166
:10176000F8BD6A6D296D304601F014FB2068FFF763
:1017700087FF01F047FBF3E7043870472DE9F04F8E
:1017800089B00193002800F0D9800E461746044620
:1017900000F1040BA049D0F89000FFF76FFD8046E0
:1017A0009E49D4F89400FFF769FD05469C49D4F89A
:1017B0009800FFF763FD82469A49D4F89C00FFF732
:1017C0005DFD8146B8F1000F00F0B880D4F8943088
:1017D000B3F1FF3F02D0002D00F0B080D4F8983074
:1017E000B3F1FF3F03D0BAF1000F00F0A780D4F8A7
:1017F0009C30B3F1FF3F03D0B9F1000F00F09E80A1
:1018000029464046FFF76AFD20605146FFF766FD16
:1018100020604946FFF762FD2060002800F08E80BE
:10182000814B98422CD0814B984200F08A80804BAB
:10183000984200F0A0807F4B984200F0B6807E4B2B
:10184000984200F0CC807D4B984232D103F5C833EA
:10185000DA6B42F00102DA63DA6B22F00102DA633A
:10186000DA6D42F00102DA65DB6D03F001030793E4
:10187000079B052384F8A130462384F8A03018E0A4
:1018800003F558431A6C42F480421A641A6C22F42D
:1018900080421A641A6E42F480421A661B6E03F488
:1018A00080430293029B002384F8A130252384F80F
:1018B000A0305949D4F89000FFF7C2FC25B1574930
:1018C000D4F89400FFF7BCFCBAF1000F00F0A1803F
:1018D0005349D4F89800FFF7B3FC4FF48078B9F17E
:1018E000000F06D048F400784E49D4F89C00FFF76A
:1018F000A7FC94F8A120524B43F822B02368636000
:10190000A660E760129B2361019B63610C23A361C6
:10191000C4F81C8000222262A2626262012194F952
:10192000A00001F037FA2268444B9A4200F08A8006
:10193000002D00F00E81584603F049FC09B0BDE8C7
:10194000F08F03F5E6339A6B42F400329A639A6B98
:1019500022F400329A639A6D42F400329A659B6DCC
:1019600003F400330393039B012384F8A13026235F
:1019700084F8A0309DE703F5E4339A6B42F48022AB
:101980009A639A6B22F480229A639A6D42F48022C1
:101990009A659B6D03F480230493049B022384F8CF
:1019A000A130272384F8A03083E703F5E2339A6B54
:1019B00042F400229A639A6B22F400229A639A6D91
:1019C00042F400229A659B6D03F400230593059B66
:1019D000032384F8A130342384F8A03069E703F5A9
:1019E000E0339A6B42F480129A639A6B22F480126D
:1019F0009A639A6D42F480129A659B6D03F480138A
:101A00000693069B042384F8A130352384F8A03084
:101A10004FE74FF0000862E7C4A6000834A60008AC
:101A2000BCA5000850A50008003801400044004053
:101A300000480040004C0040005000400080004042
:101A40007C040020B6F5165F3CD8584603F0C2FC73
:101A5000584603F0F3FC002D3BD0584603F0B7FB8B
:101A600000283FF46BAFB6F5165F38D93B4B1B68C7
:101A700013F4806F0BD02268394B9A424BD0002D63
:101A800053D0584603F0A3FB00283FF457AF226819
:101A9000334B9A424FD0002D55D0584603F097FB58
:101AA00000283FF44BAF22682D4B9A427FF440AFA1
:101AB0002A4AD2F8883023F4406343F48063C2F8A2
:101AC000883035E7584603F09FFC584603F0CDFCBC
:101AD000C1E7584603F0ACFB0028C4D12EE7022032
:101AE000FFF72EF922681E4B9A4206D06DB1584678
:101AF00003F06DFB0028B9D120E7184AD2F88830EE
:101B000043F44063C2F88830F0E7584603F090FB96
:101B10000028ABD112E7114AD2F8883023F4406391
:101B200043F40063C2F88830A9E7584603F080FB0D
:101B30000028ACD102E7094AD2F8883023F4406388
:101B4000C2F88830A7E7584603F072FB0028AAD1F4
:101B5000F4E6584603F06CFBF0E600BF00100240CC
:101B60000080004010B582B00A4B1A680A4B53F847
:101B700022400A492046FFF781FB48B10848C0F8D7
:101B800090400022009213464FF41651FFF7F6FDE5
:101B900002B010BD54A7000894A70008C4A600080E
:101BA0004C00002008B590F8A120064B53F8220005
:101BB00003F001F800F02200222814BF00200120C9
:101BC00008BD00BF7C04002008B590F8A120064B9A
:101BD00053F8220002F0EFFF00F02100212814BF8B
:101BE0000020012008BD00BF7C040020F8B5064697
:101BF0000D4600F0CFF90446334B93F8A130052B86
:101C000017D8314B93F8A120304B53F82200FFF73F
:101C1000B3FD0746002853D03846FFF7D5FF00280C
:101C200042D000F0B7F9031BB3F57A7FF4D300205C
:101C3000F8BD274B1A68274B53F8227026493846BF
:101C4000FFF71CFB002839D01F4B002283F8A1208E
:101C500005E01D4A92F8A130013382F8A1301A4BF9
:101C600093F8A130052B11D8184A52F82330002BD5
:101C7000EFD019493846FFF701FB134B93F8A12029
:101C8000124B53F822301B688342E2D10E4B93F87B
:101C9000A130052BB5D9FFF765FF0B4B93F8A130A9
:101CA000052BAED90020C3E74FF47A73AAB23146B0
:101CB000381D03F0E8F928B92846B9E70020B7E74E
:101CC0000020B5E70020B3E74C0000207C04002092
:101CD00054A7000894A70008C4A60008A0B138B50E
:101CE0000D460446FFF75EFF88B994F8A2302B70CA
:101CF00094F8A100012204F1A201064B53F8200040
:101D000003F03AFB002038BD4FF0FF3070474FF032
:101D1000FF30F8E77C040020D8B138B50D46044602
:101D2000FFF740FF00B138BDC4F8885094F9A00017
:101D300001F076F894F8A100012204F1A201054B0C
:101D400053F8200003F018FB94F9A00001F05AF8B2
:101D5000E9E770477C040020D8B138B51546044641
:101D6000C0F88C1090F9A00001F05AF894F8A10086
:101D7000D4F8A830B4F8B210AAB213FA81F1054B26
:101D800053F8200002F052FC94F9A00001F03AF858
:101D900038BD70477C04002070B108B5D0F894209D
:101DA000B2F1FF3F00D008BD90F8A120034B53F8DB
:101DB000220002F0B8FEF6E7704700BF7C04002066
:101DC00070B108B5D0F89420B2F1FF3F00D008BD43
:101DD00090F8A120034B53F8220002F0C8FEF6E76A
:101DE000704700BF7C04002008B5FFF7C5FC10B1A8
:101DF000D0F88820904708BD08B5FFF7BDFC10B1AA
:101E0000D0F88C20904708BD38B504460368DA69DD
:101E100012F0010F0AD001221A622046FFF7ACFC33
:101E2000054610B1FFF7BEFEA8B138BDDA6912F061
:101E3000020F02D002221A62EFE7DA6912F0040FF1
:101E400002D004221A62E8E7DA6912F0080FE4D03F
:101E500008221A62E1E7012205F1A201204603F0FF
:101E60008BFAE2E708B5252001F000F8024B18686C
:101E700002F038FC08BD00BF7C04002008B5262015
:101E800000F0F4FF024B586808B102F02BFC08BDCB
:101E90007C04002008B5272000F0E8FF024B98687A
:101EA00008B102F01FFC08BD7C04002008B53420F6
:101EB00000F0DCFF024BD86802F014FC08BD00BF44
:101EC0007C04002008B5352000F0D0FF024B1869D3
:101ED00002F008FC08BD00BF7C04002008B54620C5
:101EE00000F0C4FF024B586902F0FCFB08BD00BFC4
:101EF0007C04002010B50446FFF73EFC012200F1EF
:101F0000A201204603F038FA10BD7047104B1B7831
:101F10000BB90120704710B504464FF47A70B0FB3E
:101F2000F3F30C4A1068B0FBF3F000F08BFF68B9D4
:101F30000F2C01D901200AE0002221464FF0FF308A
:101F400000F028FF044B1C60002000E0012010BDC1
:101F500004010020480000200801002010B50320E3
:101F600000F006FF0020FFF7D1FF10B1012420464A
:101F700010BD0446FFF7C9FFF9E70000034B1B78CB
:101F8000034A11680B441360704700BF040100202E
:101F900094040020014B1868704700BF940400208F
:101FA00030B583B000230193002800F0EB80044695
:101FB000436D13B323689A6812F0005F05D09A68E6
:101FC00022F0204222F03F029A602268936813F0C8
:101FD000805F1FD1936823F0104323F03F0343F049
:101FE00080539360684B1B689B09684AA2FB0323DC
:101FF0009B0901335B00019309E0FEF727FC0023F6
:10200000A36584F85030D5E7019B013B0193019B08
:10201000002BF9D12268936813F0805F40F089802B
:10202000636D43F010036365A36D43F00103A36583
:102030000120936813F0040300D00123616D11F0B7
:10204000100F40F09880002B40F09580636D23F4D2
:10205000817343F002036365936813F0010F1BD192
:102060004B4B9A6812F0010200D00122494B9B6849
:1020700013F0010300D001231343474A926812F082
:10208000010200D00122134306D1636843498A68E4
:1020900022F47C1213438B60627E636B43EA42330B
:1020A000E2681343A268134394F8202043EA0243F2
:1020B000012A40D0A26A22B102F47072E16A0A4396
:1020C00013432168CD68364A2A401343CB60216808
:1020D0008B6813F0040300D001238A6812F0080211
:1020E00000D00122B3B9AAB9227E94F830305B0047
:1020F00043EA8232CB6823F4804323F00203134384
:10210000CB6094F83830012B1AD02268136923F081
:10211000010313612369012B24D02268136B23F080
:102120000F031363636D23F0030343F0010363653F
:1021300026E000207DE7626A013A43EA4243B9E7BC
:1021400021680B6923F4FF6323F00403E26B256C21
:102150002A43656C2A43A56C2A43134343F00103C9
:102160000B61D7E721680B6B23F00F03E269013A9B
:1021700013430B63D6E7636D43F0100363650120DF
:1021800003B030BD0120FBE748000020632D3E0571
:1021900000000450000104500002045000030450E9
:1021A00007C0F0FF2DE9F04104460E463F4B9F6803
:1021B00007F01F074569082D11D057B1052F08D02A
:1021C000092F06D0394B9B6813F4604F2CD104259E
:1021D00005E02368DB6813F0010F1FD10425FFF72A
:1021E000D9FE804623681A682A4223D1B6F1FF3F00
:1021F000F8D0FFF7CFFEA0EB0800B04201D8002EC8
:10220000F0D123681B682B42ECD1636D43F00403CB
:102210006365002384F85030032042E0636D43F08F
:102220002003636501203CE0436D43F020034365D8
:10223000012036E0626D42F400726265DA6812F4E1
:10224000406F11D1627E7AB91A6812F0080F0BD074
:10225000626D22F480726265626D12F4805F03D158
:10226000626D42F001026265114A934209D01A463A
:10227000934209D047B1052F06D0092F04D0D26868
:1022800003E0A2F58072F3E7DA68082D06D012F4B5
:10229000804F08D10C221A60002002E008221A6048
:1022A0000020BDE8F0810020FBE700BF00030450E0
:1022B000000104500368186C70470000F0B583B04B
:1022C0000022019290F85020012A00F04582034636
:1022D000012280F850200268926812F0040F09D0A1
:1022E000426D42F0200242650120002283F8502016
:1022F00003B0F0BD4A68052A08D8023A032A68D814
:10230000DFE802F0025D60630C224A601D684C68E1
:102310003035220A920002F00C02A85804F01F0E79
:102320001F2404FA0EF420EA04000C68C4F3846C41
:102330000CFA0EFC40EA0C00A8501C68A26812F0CF
:10234000040200D00122A06810F0080000D0012093
:102350000AB9002840D01868826812F0010F17D11E
:102360000A68CD68D0F8B040C2F3120C24EA0C041D
:1023700005F0180CAD4D25FA0CF52A40C2F31202F7
:102380002243C0F8B020C868A94A904200F0B98042
:102390000A68A8490A4200F0DB81A749896801F070
:1023A000E074A648824200F07D81A548824200F098
:1023B000A481A448824200F0B881002095E712224F
:1023C0004A60A3E718224A60A0E74FF480724A608F
:1023D0009CE706224A6099E70E688D681434720EF5
:1023E000920002F00402A058C6F3045C072606FA25
:1023F0000CF620EA060005FA0CF52843A0504869BF
:102400001C68E268C2F3C102520000FA02F20D69D0
:10241000042D0ED00E68603454F825708A48384078
:1024200006F0F8463243104340F0004044F82500DF
:1024300091E7226E206EC0F384600A68C2F3120531
:1024400085BBC2F38462904234D01C68626E606EB9
:10245000C0F384600A68C2F3120585BBC2F38462CC
:10246000904234D01C68A26EA06EC0F384600A68EB
:10247000C2F3120585BBC2F38462904234D01C685B
:10248000E26EE06EC0F384600A68C2F3120585BB99
:10249000C2F3846290427FF45EAFE26E22F00042AB
:1024A000E26658E792FAA2F212B1B2FA82F2CAE7F1
:1024B0002022C8E7226E22F000422266C5E792FA87
:1024C000A2F212B1B2FA82F2CAE72022C8E7626E23
:1024D00022F000426266C5E792FAA2F212B1B2FAA5
:1024E00082F2CAE72022C8E7A26E22F00042A2666A
:1024F000C5E792FAA2F212B1B2FA82F2CAE720223A
:10250000C8E71C680A68C2F31205002D39D1900E85
:10251000013000F01F0009288CBF00200120002896
:1025200067D0002D3CD1900E0130800600F0F840BD
:10253000002D41D1960E013606F01F0C012606FA39
:102540000CF63043002D46D1920E013202F01F02EC
:1025500002EB420212050243886804F11406550E8C
:10256000AD0005F004057459C2F304524FF0070C96
:102570000CFA02FC24EA0C0C90404CEA000070516A
:1025800006E792FAA2F048B1B0FA80F0013000F00C
:102590001F0009288CBF00200120C0E72020F5E79C
:1025A00092FAA2F030B1B0FA80F00130800600F06B
:1025B000F840BDE72020F8E792FAA2F64EB1B6FA4D
:1025C00086F6013606F01F064FF0010C0CFA06F6EF
:1025D000B7E72026F5E792FAA2F242B1B2FA82F208
:1025E000013202F01F0202EB42021205B3E7202281
:1025F000F6E75DBB900E0130800600F0F8408DBB21
:10260000960E013606F01F0C012606FA0CF6304332
:10261000BDBB920E013202F01F0202EB42021E3AD3
:10262000120542F00072024396E700BFFFFF070069
:1026300000007F400000088000030450000052C7E3
:10264000000084CB0100008000F0FF0392FAA2F0AA
:1026500030B1B0FA80F00130800600F0F840CEE7EB
:102660002020F8E792FAA2F64EB1B6FA86F60136C5
:1026700006F01F064FF0010C0CFA06F6C7E72026FD
:10268000F5E792FAA2F25AB1B2FA82F2013202F0FE
:102690001F0202EB42021E3A120542F00072C2E72C
:1026A0002022F3E711F4000F7FF47FAE1A682B4964
:1026B0008A4205D001F500718A4201D0002014E65B
:1026C00044F4000426498A6822F0E07214438C60C6
:1026D000244A126892092449A1FB0212920901328C
:1026E00002EB42029200019202E0019A013A019249
:1026F000019A002AF9D10020F7E511F0807F7FF4DC
:1027000058AE1A6815498A4205D001F500718A420F
:1027100001D00020E9E544F080721148816821F081
:10272000E0710A4382600020DFE511F4800F11D1CF
:1027300019680A4A914201D00020D6E544F480028B
:102740000748816821F0E0710A4382600020CCE5EF
:102750000020CAE50020C8E50220C9E500000450B9
:102760000003045048000020632D3E05406D704773
:1027700070B5044603689A6812F0040200D0012282
:10278000986810F0080000D001200AB900286BD02A
:10279000DA6812F0007F04D0208B40F201129042E0
:1027A0004ED0022910D023689A6812F0040F0BD083
:1027B0009A6812F0020F07D19A6822F0004222F0C4
:1027C0003F0242F010029A60012910D023689A68F3
:1027D00012F0080F0BD09A6812F0020F07D19A6816
:1027E00022F0004222F03F0242F020029A600229C9
:1027F00034D0032934D10C25FFF7CCFB06462368DF
:102800009B682B422ED0FFF7C5FB801B0528F6D90D
:1028100023689B682B42F2D0636D43F0100363651D
:10282000A36D43F00103A36501201CE0636D43F039
:1028300010036365A36D43F00103A365012012E05B
:102840000022196811F0400F04D108498A42EDD8DE
:102850000132F6E740221A600121A4E70825CBE700
:102860000425C9E7002070BD0020FCE7FFFF3FA35F
:1028700030B583B00023019303689A6812F0010F0A
:1028800058D1044699682D4A114219D19A6822F00C
:10289000004222F03F0242F001029A60284B9B68FE
:1028A00013F4000F1CD0274B1B689B09264AA2FB80
:1028B00003239B09013303EB43039B0001930CE0CB
:1028C000436D43F010034365836D43F0010383655B
:1028D000012030E0019B013B0193019B002BF9D1CA
:1028E000FFF758FB054623681A6812F0010F1FD145
:1028F0009A6812F0010F07D19A6822F0004222F084
:102900003F0242F001029A60FFF744FB431B022B97
:10291000E9D923681B6813F0010FE4D1636D43F01C
:1029200010036365A36D43F00103A365012002E07A
:10293000002000E0002003B030BD00BF3F00008059
:102940000003045048000020632D3E0538B53A4B83
:102950009D6803689B6813F0040F69D1044605F075
:102960001F0590F85030012B64D0012380F85030BF
:10297000FFF77EFF002857D1636D23F4706323F0C7
:10298000010343F48073636523682C4A93422FD07C
:102990001A46934200D01DB9626D22F4801262651E
:1029A000626D12F4805F26D0A26D22F00602A2654D
:1029B0001C221A60002384F8503022681F4B9A4270
:1029C0001CD013469A421CD0DDB1052D19D0092D1B
:1029D00017D0626D42F480126265DB6813F0007FED
:1029E00027D0636D23F4405343F48053636520E0A4
:1029F000A2F58072CDE70022A265D9E7A3F5807326
:102A0000E0E7D36813F0007F05D0636D23F44053F3
:102A100043F480536365936823F0004323F03F033E
:102A200043F00403936004E0002384F8503000E096
:102A3000022038BD0220FCE70003045000010450CE
:102A400038B504460268936813F0020300D00123EE
:102A5000916811F0010F39D0002B39D1936803F040
:102A60000D03012B09D0636D43F010036365A36D63
:102A700043F00103A365012029E0936823F000439C
:102A800023F03F0343F002039360236803221A609C
:102A9000FFF780FA054623689B6813F0010F13D0F7
:102AA000FFF778FA401B0228F5D923689B6813F0DA
:102AB000010FF0D0636D43F010036365A36D43F025
:102AC0000103A365012002E0002000E0002038BDE2
:102AD0000020FCE738B5002800F0C9800446436DAB
:102AE00043F0020343650321FFF742FE2268D368E7
:102AF00043F40013D3600546002800F09F8022684D
:102B0000536823F4FF6323F007035360236840F204
:102B1000FF721A602268936823F0A04393602268D2
:102B2000936843F0005393602268D168514B0B4087
:102B3000D3602268D36843F00043D36022681369EE
:102B400023F4FF6323F0070313612268536903F042
:102B5000404353612268936903F07843936122688C
:102B6000136A03F0F02313622268536A03F0FF2311
:102B700053622268936A03F0FF2393622268116B09
:102B80003D4B0B40136323685A6B3C490A405A6320
:102B90002268936B0B4093632268D36B23F4FB632F
:102BA00023F00703D36321680A6E354B1A400A6687
:102BB00021684A6E1A404A6621688A6E1A408A66FF
:102BC0002168CA6E1340CB662268D2F8A030DB0CB5
:102BD000DB04C2F8A0302268D2F8A430DB0CDB049E
:102BE000C2F8A4302268D2F8B030DB0CDB04C2F8A3
:102BF000B0302268D2F8B43023F07F13C2F8B4307A
:102C0000204B9A6812F0010200D001221E4B9B68F3
:102C100013F0010300D0012313431C4A926812F001
:102C2000010200D00122134312D00023A365E36503
:102C30002366636584F85030284638BD2046FFF788
:102C4000FFFE054600287FF45AAF0123636556E76F
:102C50000F4A936823F0FF7323F4F73323F48F7341
:102C600023F0010393602046FDF714FEDDE7012504
:102C7000E2E700BF04800080300882E0200882E0A4
:102C800000F0FF0300000450000104500002045053
:102C90000003045090F85030012B1AD010B50446B0
:102CA000012380F850300321FFF762FD18B10023A3
:102CB00084F8503010BD2046FFF7C2FE0028F6D140
:102CC000636D23F4885323F0010343F0010363652C
:102CD000EDE70220704730B583B00023019390F8F0
:102CE0005030012B41D004460D46012380F850306E
:102CF000FFF7A6FE80BB636D23F4885323F0020325
:102D000043F0020363652268936823F0404323F095
:102D10003F0305F080452B4343F000439360236855
:102D20009B68002B06DB636D23F0030343F0010374
:102D3000636515E0019B01330193019BB3F5912F6E
:102D4000EDD3636D23F0120343F01003636500239A
:102D500084F85030012006E0636D43F01003636592
:102D6000002384F8503003B030BD0220FBE70000A0
:102D7000074AD36823F4E0631B041B0C000200F431
:102D8000E060034343F0BF6343F40033D360704714
:102D900000ED00E000B5194BDB68C3F30223C3F17B
:102DA000070CBCF1040F28BF4FF0040C03F1040E14
:102DB000BEF1060F18D9033B4FF0FF3E0EFA0CFC94
:102DC00021EA0C0199400EFA03F322EA03031943A6
:102DD00000280BDB0901C9B200F1604000F5614039
:102DE00080F800135DF804FB0023E5E700F00F0016
:102DF0000901C9B2024B1954F4E700BF00ED00E02D
:102E000014ED00E0002807DB00F01F024009012359
:102E10009340024A42F82030704700BF00E100E0D2
:102E200000280CDB00F01F024009012393402030F2
:102E3000034A42F82030BFF34F8FBFF36F8F7047C4
:102E400000E100E00138B0F1807F0BD24FF0E023C9
:102E50005861054AF02182F823100020986107226A
:102E60001A6170470120704700ED00E0002808DB80
:102E700000F01F024009012393406030014A42F8EC
:102E80002030704700E100E0704708B5FFF7FCFF15
:102E900008BD7047002838D010B50446437F1BB3E7
:102EA0000223637723791BBB2368194A5A6122687E
:102EB000936823F018039360637913BB23684FF082
:102EC000FF321A612268936823F0600361690B4343
:102ED00093602268936823F08003A1690B43936099
:102EE00001236377002010BD0377FFF7D2FFD7E7F8
:102EF000E268A168204600F00DF80028DCD001202F
:102F0000F1E7236822691A61DCE70120704700BFFE
:102F1000B71DC10410B41F231C46013B34B103F09C
:102F20001F0C21FA0CFC1CF0010FF5D0182A22D836
:102F3000DFE802F00F212121212121211D21212162
:102F40002121212119212121212121210D00062BBF
:102F500015D80368596101688B6823F018031A4378
:102F60008A60002008E0072BF3D9012004E00F2B32
:102F7000EFD9012000E001205DF8044B70470120EB
:102F8000FAE750B110B5044602230371FDF72EFC99
:102F9000002020612071607110BD0120704710B4C5
:102FA0000468236801F01001012202FA01F123EA0A
:102FB00001012160027100205DF8044B704790F818
:102FC0002530DBB2022B06D00423C363002380F834
:102FD0002430012070470268136823F00E03136049
:102FE0000268136823F001031360436C03F01C03B1
:102FF000016C012202FA03F34B6080F825200023C4
:1030000080F824301846704708B590F82530DBB2B8
:10301000022B03D00423C363012008BD0268136898
:1030200023F00E0313600268136823F0010313609A
:10303000436C03F01C03016C012202FA03F34B60A2
:1030400080F82520002380F82430836B13B1984743
:103050000020E2E70020E0E708B5054B5B6903428A
:1030600000D108BD024B5861FDF7B4FFF9E700BF7E
:1030700000040140024A136843F4807313607047F0
:1030800000700040024B186800F4C060704700BF39
:1030900000700040B0F5007F0FD01F4B1B6803F499
:1030A000C063B3F5806F34D01B4A136823F4C06348
:1030B00043F48063136000207047174B1B6803F4D0
:1030C000C063B3F5007F20D0134A136823F4C063B4
:1030D00043F400731360114B1B68322202FB03F3AD
:1030E0000F4AA2FB03239B0C013300E0013B0A4A79
:1030F000526912F4806F01D0002BF7D1064B5B6947
:1031000013F4806F03D10020704700207047032024
:1031100070470020704700BF00700040480000204A
:1031200083DE1B43024A536843F4007353607047C5
:103130000070004030B583B00446204B9B6D13F007
:10314000805F0BD0FFF79EFFB0F5007F17D0802C7B
:103150001FD82DD0702C2DD000211BE0174DAB6D4A
:1031600043F08053AB65AB6D03F080530193019B3B
:10317000FFF788FFAB6D23F08053AB65E4E7802C4D
:1031800003D9A02C03D9022104E0002102E001218F
:1031900000E003210A4A136823F007030B4313607E
:1031A000136803F007038B4206D1002003B030BD43
:1031B0000221EFE70121EDE70120F7E700100240CF
:1031C00000200240284A9368D26802F0030213F0FC
:1031D0000C030AD00C2B06D0042B1FD0082B20D0B8
:1031E0000020024610E0012AF6D11F4A126812F0B0
:1031F000080F0CD11C4AD2F89420C2F303221B49B9
:1032000051F8222043B100200C2B0DD07047164AF4
:103210001268C2F30312F2E71046F5E714480022E1
:10322000F2E714480022EFE70F4BDB6803F00303DB
:10323000022B16D0032B00D10E4A0B49C868C0F3ED
:103240000210431CC868C0F3062002FB00F0B0FB6C
:10325000F3F0CB68C3F3416301335B00B0FBF3F0E1
:10326000D4E7034AE9E700BF00100240A89E000827
:103270000024F40000127A00002800F0F182F0B57A
:1032800083B00446964B9D6805F00C05DE6806F099
:103290000306036813F0100F5AD0E5B10C2D18D0B7
:1032A000A369002B00F0BB808D4A136843F0010333
:1032B0001360FEF76FFE0746894B1B6813F0020F81
:1032C00040F09A80FEF766FEC01B0228F4D9032066
:1032D000D1E2012EE4D1824B1B6813F0020F03D020
:1032E000A369002B00F0BE82206A7D4B1B6813F09F
:1032F000080F5BD07A4B1B6803F0F00398425CD850
:10330000774B1A6842F008021A601A6822F0F0023D
:10331000216A0A431A605A6822F47F42E16942EA4C
:1033200001225A60002D60D0FFF74CFF6C4B9B6868
:10333000C3F303136B4AD35C03F01F03D8406A4BFB
:1033400018606A4B1868FEF7E1FD002840F0938290
:10335000236813F0010F00F08180082D75D00C2D2B
:1033600071D06368B3F5803F00F09780B3F5A02F6C
:1033700000F099805A4B1A6822F480321A601A6859
:1033800022F480221A606368002B00F09980FEF717
:1033900001FE0746524B1B6813F4003F5ED1FEF757
:1033A000F9FDC01B6428F5D9032064E24C4BD3F827
:1033B00094301B0903F0F003A0E7FFF7BBFE0028E1
:1033C00040F05282464B1A6842F008021A601A68AE
:1033D00022F0F002216A0A431A605A6822F47F42FE
:1033E000E16942EA01225A609EE7206AFFF7A2FEE5
:1033F000002899D001203EE2394B1A6842F00802B9
:103400001A601A6822F0F002216A0A431A605A68A8
:1034100022F47F42E16942EA01225A6098E7304A89
:10342000136823F001031360FEF7B4FD07462C4B2D
:103430001B6813F0020F8BD0FEF7ACFDC01B0228F7
:10344000F5D9032017E2032E8BD1254B1B6813F40B
:10345000003F03D06368002B00F00882236813F05C
:10346000020F58D0042D45D00C2D41D0E368002B1D
:1034700077D01B4A136843F480731360FEF78AFD0C
:103480000646174B1B6813F4806F61D1FEF782FD6F
:10349000801B0228F5D90320EDE1114A136843F49B
:1034A000803313606FE703F18043A3F53C331A6860
:1034B00042F480221A601A6842F480321A6062E78D
:1034C000FEF768FD0746064B1B6813F4003FC5D0A6
:1034D000FEF760FDC01B6428F5D90320CBE100BFD7
:1034E00000100240909E00084800002008010020C3
:1034F000022EBBD1A34B1B6813F4806F03D0E3688B
:10350000002B00F0B5819F4A536823F0F8532169DE
:1035100043EA01635360236813F0080F4CD06369DA
:103520009BB3984AD2F8943043F00103C2F8943028
:10353000FEF730FD0646934BD3F8943013F0020F9C
:103540003AD1FEF727FD801B0228F4D9032092E12F
:103550008C4A536823F0F853216943EA01635360AE
:10356000D9E7884A136823F480731360FEF712FDCD
:103570000646844B1B6813F4806FCCD0FEF70AFD1F
:10358000801B0228F5D9032075E17E4AD2F89430D9
:1035900023F00103C2F89430FEF7FCFC0646794B99
:1035A000D3F8943013F0020F06D0FEF7F3FC801B23
:1035B0000228F4D903205EE1236813F0040F7AD0C7
:1035C000704B9B6D13F0805F36D16E4B9A6D42F05D
:1035D00080529A659B6D03F080530193019B0126F5
:1035E000694B1B6813F4807F28D0A368012B39D066
:1035F000052B3FD0634BD3F8902022F00102C3F893
:103600009020D3F8902022F00402C3F89020A36801
:10361000002B3DD0FEF7BEFC07465A4BD3F8903046
:1036200013F0020F46D1FEF7B5FCC01B41F2883300
:103630009842F2D903201EE10026D1E7524A1368CE
:1036400043F480731360FEF7A5FC07464E4B1B68DE
:1036500013F4807FC9D1FEF79DFCC01B0228F5D969
:10366000032008E1474AD2F8903043F00103C2F842
:103670009030CCE7434BD3F8902042F00402C3F8DB
:103680009020D3F8902042F00102C3F89020BEE7CA
:10369000FEF780FC07463B4BD3F8903013F0020F47
:1036A00008D0FEF777FCC01B41F288339842F2D96C
:1036B0000320E0E0EEB9A36A002B00F0DB80022BD0
:1036C0001DD00C2D00F0DD802E4A136823F080738E
:1036D0001360FEF75FFC04462A4B1B6813F0007F63
:1036E00000F0B780FEF756FC001B0228F4D9032037
:1036F000C1E0244A936D23F080539365DBE7214BAF
:10370000DB6803F00301E26A91420FD00C2D00F058
:10371000B4801C4B1B6813F0806F40F0B080194BD5
:103720001B6813F0805F31D00120A4E003F0700229
:10373000216B0139B2EB011FE8D103F4FE42616B4A
:10374000B2EB012FE2D103F40031A26B073A18BFAC
:1037500001229142DAD103F4C001E26B5208013A2E
:10376000B1EB425FD2D103F0C063226C5208013A40
:10377000B3EB426FCAD1034B1B6813F0007F4ED0EE
:10378000002078E000100240007000403E4A1368BC
:1037900023F080731360FEF7FDFB05463A4B1B6870
:1037A00013F0007F06D0FEF7F5FB401B0228F5D989
:1037B000032060E0344AD36834491940E36A206B3F
:1037C000013843EA0013606B43EA0023E06B4008D2
:1037D000013843EA4053206C4008013843EA406313
:1037E000A06B000943EA40430B43D360136843F0E6
:1037F00080731360D36843F08073D360FEF7CAFB15
:103800000446214B1B6813F0007F06D1FEF7C2FB74
:10381000001B0228F5D903202DE000202BE01A4BD5
:103820001A6842F080721A60DA6842F08072DA60D8
:10383000FEF7B0FB0446144B1B6813F0007F06D163
:10384000FEF7A8FB031B022BF5D9032013E0002091
:1038500011E00D4AD1680E4B0B40D36000200AE006
:1038600001207047012006E0012004E0012002E071
:10387000012000E0002003B0F0BD0120FBE70120A3
:10388000F9E70120F7E700BF001002408C809DF9A6
:10389000FCFFEEFE002800F0AF8070B50D46044638
:1038A000594B1B6803F007038B420BD2564A13682F
:1038B00023F007030B431360136803F007038B42E5
:1038C00040F09C80236813F0020F0CD0A2684F4B8D
:1038D0009B6803F0F0039A4205D94C498B6823F0AA
:1038E000F0031A438A60236813F0010F39D063682C
:1038F000032B09D0022B26D063BB444A126812F076
:10390000020F06D1012076E0404A126812F0007FD3
:1039100076D03E498A6822F0030213438B60FEF79B
:1039200039FB0646394B9B6803F00C036268B3EB26
:10393000820F16D0FEF72EFB801B41F2883398428F
:10394000F0D9032057E0314A126812F4003FE0D169
:10395000012050E02D4A126812F4806FD9D1012065
:1039600049E0236813F0020F0CD0A268274B9B6834
:1039700003F0F0039A4205D224498B6823F0F00348
:103980001A438A60204B1B6803F00703AB420AD935
:103990001D4A136823F007032B431360136803F0D9
:1039A0000703AB422ED1236813F0040F06D0174A49
:1039B000936823F4E063E1680B439360236813F09A
:1039C000080F07D0114A936823F46053216943EA32
:1039D000C1039360FFF7F6FB0C4B9B68C3F3031323
:1039E0000B4AD35C03F01F03D8400A4B18600A4B04
:1039F0001868FEF78BFA70BD012070470120FAE7C6
:103A00000120F8E70120F6E7002002400010024004
:103A1000909E00084800002008010020014B186813
:103A2000704700BF4800002008B5FFF7F7FF054BBF
:103A30009B68C3F30223044AD35C03F01F03D840FE
:103A400008BD00BF00100240A09E000808B5FFF7A7
:103A5000E5FF054B9B68C3F3C223044AD35C03F024
:103A60001F03D84008BD00BF00100240A09E000800
:103A7000F8B504460F46594BDB6813F0030F18D016
:103A8000564BDB6803F003030268934202D0012522
:103A90002846F8BD002A00F09E80504BDB68C3F337
:103AA000021301334268934201D00125F0E700255B
:103AB00009E00368022B57D0032B5CD0012B42D0C6
:103AC0000125002DE4D1454A136823F0806313607B
:103AD000FEF760FA0646414B1B6813F0006F05D0F5
:103AE000FEF758FA831B022BF5D90325002DCFD101
:103AF000002F4ED139490B6923F41F3323F440734F
:103B0000A068E2681209520442EA002213430B61E2
:103B1000324A136843F080631360FEF73BFA0646AF
:103B20002E4B1B6813F0006F05D1FEF733FA831B91
:103B3000022BF5D90325002DAAD1284A1369A169C2
:103B40000B431361A4E7254A126812F0020F1ED03E
:103B50002248C26822F073026168013943EA011306
:103B60001343C3600025ACE71C4A126812F4806F4F
:103B7000EED10125A5E7194A126812F4003FE7D1FA
:103B8000164A126812F4802FE2D1012599E7012527
:103B900097E7012F0FD01148026922F0C06222F48A
:103BA000FE42A16863695B08013B5B0643EA0123AF
:103BB00013430361ACE70948026922F4C00222F40E
:103BC000FE42A16823695B08013B5B0543EA0123D0
:103BD000134303619CE701255AE700BF0010024030
:103BE000F8B504460F46504BDB6813F0030F18D0AE
:103BF0004D4BDB6803F003030268934202D00125BA
:103C00002846F8BD002A00F08C80474BDB68C3F3E0
:103C1000021301334268934201D00125F0E70025E9
:103C200009E00368022B57D0032B5CD0012B42D054
:103C30000125002DE4D13C4A136823F08053136022
:103C4000FEF7A8F90646384B1B6813F0005F05D055
:103C5000FEF7A0F9831B022BF5D90325002DCFD148
:103C6000002F4ED130494B6923F41F3323F44073A6
:103C7000A068E2681209520442EA002213434B6131
:103C8000294A136843F080531360FEF783F9064610
:103C9000254B1B6813F0005F05D1FEF77BF9831BF2
:103CA000022BF5D90325002DAAD11F4A536961695A
:103CB0000B435361A4E71C4A126812F0020F1ED096
:103CC0001948C26822F073026168013943EA01139E
:103CD0001343C3600025ACE7134A126812F4806FE7
:103CE000EED10125A5E7104A126812F4003FE7D192
:103CF0000D4A126812F4802FE2D1012599E70125BF
:103D000097E70948426922F0C06222F4FE42A168A6
:103D100023695B08013B5B0643EA012313434361CC
:103D2000AEE701256CE700BF001002402DE9F0412D
:103D300082B00446036813F4006F33D0436EB3F5CA
:103D4000000F1FD00CD823B3B3F5800F05D100218D
:103D50002030FFF745FF064620E001273E4623E0DE
:103D6000B3F5400F0BD10026604AD2F8883023F417
:103D70004003616E0B43C2F88830002714E001272E
:103D80003E4611E0594AD36843F48033D36000269D
:103D9000EAE700210430FFF76BFE0646002EE3D071
:103DA000374601E000273E46236813F4805F30D099
:103DB000A36EB3F1007F1FD00DD81BB3B3F1807F8A
:103DC00006D1002104F12000FFF70AFF064605E0B6
:103DD00001273E461DE0B3F1407F0AD1C6B9434AF0
:103DE000D2F8883023F04073A16E0B43C2F88830BC
:103DF0000FE001273E460CE03C4AD36843F4803391
:103E0000D360EBE70021201DFFF732FE0646E5E711
:103E10003746236813F4003F71D0344B9B6D13F089
:103E2000805F4ED1314B9A6D42F080529A659B6D06
:103E300003F080530193019B4FF001082C4A136853
:103E400043F480731360FEF7A5F80546284B1B6802
:103E500013F4807F05D1FEF79DF8401B0228F5D9A9
:103E60000326002E46D1214BD3F8903013F4407333
:103E700016D0D4F884209A4212D01C4AD2F890303E
:103E800023F44073D2F8901041F48031C2F89010BE
:103E9000D2F8901021F48031C2F89010C2F890301E
:103EA00013F0010F10D1002E40F027810F4AD2F8F5
:103EB000903023F44073D4F884100B43C2F8903050
:103EC00019E04FF00008B9E7FEF764F80546074B24
:103ED000D3F8903013F0020FE5D1FEF75BF8401BEA
:103EE00041F288339842F2D90326DCE70010024001
:103EF000007000403746B8F1000F40F000812368A1
:103F000013F0010F08D09D4AD2F8883023F0030344
:103F1000A16B0B43C2F88830236813F0020F08D05E
:103F2000964AD2F8883023F00C03E16B0B43C2F8B9
:103F30008830236813F0040F08D0904AD2F88830F4
:103F400023F03003216C0B43C2F88830236813F050
:103F5000080F08D0894AD2F8883023F0C003616C7A
:103F60000B43C2F88830236813F0100F08D0834A3F
:103F7000D2F8883023F44073A16C0B43C2F8883028
:103F8000236813F0200F08D07C4AD2F8883023F43D
:103F90004063E16C0B43C2F88830236813F4007F60
:103FA00008D0764AD2F8883023F44023E16D0B43E1
:103FB000C2F88830236813F4806F08D06F4AD2F8B3
:103FC000883023F44013216E0B43C2F888302368F5
:103FD00013F0400F08D0694AD2F8883023F44053D8
:103FE000216D0B43C2F88830236813F0800F08D08E
:103FF000624AD2F8883023F44043616D0B43C2F823
:104000008830236813F4807F08D05C4AD2F8883067
:1040100023F44033A16D0B43C2F88830236813F4B6
:10402000005F0FD0554AD2F8883023F04063E16E2C
:104030000B43C2F88830E36EB3F1006F65D0B3F183
:10404000806F67D0236813F4002F0FD04B4AD2F84B
:10405000883023F04063216F0B43C2F88830236F10
:10406000B3F1006F5ED0B3F1806F60D0236813F4BA
:10407000802F0FD0414AD2F8883023F04063616F1F
:104080000B43C2F88830636FB3F1006F57D0B3F1C0
:10409000806F59D0236813F4804F0FD0374AD2F87D
:1040A000883023F04053A16F0B43C2F88830A36FD0
:1040B000B3F1805F50D0B3F1005F55D0236813F4A3
:1040C000004F08D02D4AD2F8883023F08043E16FAA
:1040D0000B43C2F88830236813F4803F09D0274A85
:1040E000D2F8883023F00043D4F880100B43C2F894
:1040F0008830384602B0BDE8F0813746FBE61F4AFB
:10410000936D23F080539365F9E6D36843F48013ED
:10411000D36097E70121201DFFF7AAFC002891D06A
:1041200007468FE7D36843F48013D3609EE70121ED
:10413000201DFFF79DFC002898D0074696E7D3681E
:1041400043F48013D360A5E70121201DFFF790FC05
:1041500000289FD007469DE70221201DFFF788FC1D
:104160000028ABD00746A9E7022104F12000FFF7A1
:1041700037FD0028A2D00746A0E700BF001002408C
:10418000704700286AD010B50446436A33B94368C3
:10419000B3F5827F05D00023C36102E000230361F1
:1041A00043610023A36294F85D30002B4DD00223BD
:1041B00084F85D302268136823F040031360E368DD
:1041C000B3F5E06F47D90022B3F5706F04D0B3F5B3
:1041D000E06F01D00023A362636803F48273A168D7
:1041E00001F404410B43216901F002010B436169B1
:1041F00001F001010B43A16901F400710B43E16976
:1042000001F038010B43216A01F080010B43A16AE0
:1042100001F4005120680B430360638B03F0040337
:10422000616A01F010010B43616B01F008010B435F
:10423000E16801F470610B43216813434B60002077
:104240002066012384F85D3010BD84F85C30204680
:10425000FFF796FFABE74FF48052B5E701207047B8
:104260007047704710B5044603681A6912F0020FD0
:1042700011D0DA6812F0020F0DD06FF002021A614D
:104280000123037703689B6913F0030F79D001F0D2
:1042900093FA0023237723681A6912F0040F12D0CF
:1042A000DA6812F0040F0ED06FF004021A610223D4
:1042B000237723689B6913F4407F68D0204601F080
:1042C0007BFA0023237723681A6912F0080F12D0B3
:1042D000DA6812F0080F0ED06FF008021A6104239A
:1042E00023772368DB6913F0030F57D0204601F0D2
:1042F00063FA0023237723681A6912F0100F12D093
:10430000DA6812F0100F0ED06FF010021A61082355
:1043100023772368DB6913F4407F46D0204601F001
:104320004BFA0023237723681A6912F0010F03D098
:10433000DA6812F0010F3FD123681A6912F0800F7A
:1043400003D0DA6812F0800F3DD123681A6912F4A5
:10435000807F03D0DA6812F0800F3BD123681A699E
:1043600012F0400F03D0DA6812F0400F39D1236801
:104370001A6912F0200F03D0DA6812F0200F37D13B
:1043800010BD01F01DFA2046FFF76AFF81E72046C5
:1043900001F016FA2046FFF763FF92E7204601F08E
:1043A0000FFA2046FFF75CFFA3E7204601F008FA6A
:1043B0002046FFF755FFB4E76FF001021A6120466F
:1043C00001F0D4F9B8E76FF080021A61204600F0DE
:1043D000ACF8BAE76FF480721A61204600F0A6F8D4
:1043E000BCE76FF040021A612046FFF73AFFBEE7D4
:1043F0006FF020021A61204600F096F8C0E7000036
:104400000368304A904212D0B0F1804F0FD0A2F52D
:10441000943290420BD002F58062904207D002F5B0
:104420008062904203D002F59432904203D123F08F
:1044300070034A681343234A90421ED0B0F1804F64
:104440001BD0A2F59432904217D002F580629042C0
:1044500013D002F5806290420FD002F59432904260
:104460000BD002F54062904207D002F58062904284
:1044700003D002F58062904203D123F44073CA68EE
:10448000134323F080034A69134303608B68C362BC
:104490000B6883620B4B98420FD003F50063984280
:1044A0000BD003F54063984207D003F58063984230
:1044B00003D003F58063984201D10B6903630123A4
:1044C00043617047002C014060B310B5044690F87A
:1044D0003D3013B3022384F83D30214651F8040BDC
:1044E000FFF78EFF012384F8483084F83E3084F8CB
:1044F0003F3084F8403084F8413084F8423084F80A
:10450000433084F8443084F8453084F8463084F8E9
:10451000473084F83D30002010BD80F83C30FDF776
:1045200001F9D7E70120704770477047704702686C
:1045300052E8003F23F4907342E800310029F6D19D
:10454000026802F1080353E8003F23F00103083238
:1045500042E800310029F3D1036E012B05D020235E
:10456000C3670023036643667047026852E8003F52
:1045700023F0100342E800310029F6D1EFE7836F02
:10458000212B00D07047B0F852309BB293B902682B
:1045900052E8003F23F0800342E800310029F6D1C1
:1045A000026852E8003F43F0400342E8003100292E
:1045B000F6D17047C26C036812781A85C36C013358
:1045C000C364B0F852309BB2013B9BB2A0F85230AA
:1045D000D8E7836F212B00D07047B0F852309BB2E0
:1045E00093B9026852E8003F23F0800342E80031AB
:1045F0000029F6D1026852E8003F43F0400342E848
:1046000000310029F6D17047C36C1B880268C3F3E0
:1046100008031385C36C0233C364B0F852309BB2F5
:10462000013B9BB2A0F85230D6E77047836F202B36
:104630002FD100292FD0002A2FD090F87430012BD1
:104640002DD0012380F87430C164A0F85020A0F868
:10465000522000238366C0F880302123836783685B
:10466000B3F5805F0FD00F4B8366002380F8743062
:10467000026852E8003F43F0800342E8003100291D
:10468000F6D1002070470369002BECD1064B8366FE
:10469000EBE702207047012070470120704702209D
:1046A000704700BF7F450008D345000808B5026881
:1046B00052E8003F23F0400342E800310029F6D1E0
:1046C0002023836700238366FDF796FB08BD08B5AA
:1046D000806A0023A0F85A30A0F85230FDF794FB0E
:1046E00008BD704770B504460168CB6908688D68DD
:1046F00040F60F021A4005D113F0200F02D010F03F
:10470000200F20D12AB115F0010222D1AC4E304247
:104710001FD1226E012A00F0AB8013F4801F03D05A
:1047200015F4800F40F0398113F0800F03D010F0A2
:10473000800F40F0398113F0400F03D010F0400F8C
:1047400040F0398170BD636E002BFBD02046984746
:10475000F8E713F0010F09D010F4807F06D001258F
:104760000D62D4F880102943C4F8801013F0020FB2
:1047700009D042B1216802250D62D4F8801041F0C1
:104780000401C4F8801013F0040F09D042B121686D
:1047900004250D62D4F8801041F00201C4F88010A5
:1047A00013F0080F0BD010F0200F00D13AB122689F
:1047B00008211162D4F880200A43C4F8802013F441
:1047C000006F0CD010F0806F09D022684FF40061A8
:1047D0001162D4F8802042F02002C4F88020D4F87E
:1047E0008020002AAED013F0200F06D010F0200F4A
:1047F00003D0636E0BB120469847D4F8802023681D
:104800009B6813F0400F02D112F0280F29D02046E8
:10481000FFF78DFE23689B6813F0400F1DD02268C0
:1048200002F1080353E8003F23F04003083242E856
:1048300000310029F3D1236F5BB1624A9A63206F84
:10484000FEF7E2FB00283FF47DAF206F836B9847B3
:1048500078E72046FDF7D8FA74E72046FDF7D4FA4A
:1048600070E72046FDF7D0FA0023C4F8803069E7EE
:1048700013F0100F3FF451AF10F0100F3FF44DAF95
:1048800010230B6223689B6813F0400F4ED0226FF9
:1048900013685B689BB2002B3FF454AFB4F8581018
:1048A00099427FF64FAFA4F85A3013681B6813F093
:1048B000200F30D1226852E8003F23F4807342E891
:1048C00000310029F6D1226802F1080353E8003FC5
:1048D00023F00103083242E800310029F3D12268B5
:1048E00002F1080353E8003F23F04003083242E896
:1048F00000310029F3D12023E367002323662268D7
:1049000052E8003F23F0100342E800310029F6D1BD
:10491000206FFEF754FBB4F85810B4F85A309BB22D
:10492000C91A89B22046FFF7DCFE0BE7B4F858102D
:10493000B4F85A309BB2C91A89B2B4F85A309BB253
:10494000002B3FF4FFAE00293FF4FCAE226852E892
:10495000003F23F4907342E800300028F6D122682B
:1049600002F1080353E8003F23F00103083242E854
:1049700000300028F3D12023E36700232366636619
:10498000226852E8003F23F0100342E8003000287C
:10499000F6D12046FFF7A5FED4E64FF480130B6254
:1049A0002046FDF7A7FACDE6A36E002B3FF4CAAE72
:1049B00020469847C6E62046FFF778FEC2E600BFCD
:1049C00020010004CF46000808B5B0F85C30C26F83
:1049D000222A06D00268138B9BB243F0080313838C
:1049E00008BD0268918CDBB2426D0B401370436DC1
:1049F00001334365B0F85A309BB2013B9BB2A0F83B
:104A00005A30B0F85A309BB2002BE9D1026852E814
:104A1000003F23F4907342E800310029F6D1026888
:104A200002F1080353E8003F23F00103083242E893
:104A300000310029F3D12023C36700234366036EAE
:104A4000012B16D100230366026852E8003F23F0D1
:104A5000100342E800310029F6D10368DA6912F048
:104A6000100F01D010221A62B0F85810FFF739FE6B
:104A7000B6E7FDF7B9F9B3E708B5B0F85C30C26F37
:104A8000222A06D00268138B9BB243F008031383DB
:104A900008BD0268918C426D0B401380436D023358
:104AA0004365B0F85A309BB2013B9BB2A0F85A3034
:104AB000B0F85A309BB2002BEAD1026852E8003FAE
:104AC00023F4907342E800310029F6D1026802F124
:104AD000080353E8003F23F00103083242E80031A5
:104AE0000029F3D12023C36700234366036E012B03
:104AF00016D100230366026852E8003F23F010033A
:104B000042E800310029F6D10368DA6912F0100F8B
:104B100001D010221A62B0F85810FFF7E2FDB7E793
:104B2000FDF762F9B4E790F87430012B1DD0012332
:104B300080F8743024238367026852E8003F23F032
:104B40000C0342E800310029F6D1026852E8003F28
:104B500043F0080342E800310029F6D1202383679F
:104B6000002380F87430184670470220704790F890
:104B70007430012B1DD0012380F874302423836707
:104B8000026852E8003F23F00C0342E8003100299C
:104B9000F6D1026852E8003F43F0040342E80031D6
:104BA0000029F6D120238367002380F8743018464B
:104BB000704702207047826FC06F1043704700003B
:104BC00010B50446016883680269134342691343C0
:104BD000C269134308688E4A024013430B6022687F
:104BE000536823F44053E1680B435360A169226882
:104BF000884B9A4201D0236A1943936823F43063A7
:104C00000B4393602368844A934210D0834A9342B3
:104C100021D0834A934237D0824A93425CD0824A61
:104C200093426BD07B4A93427DD010223AE002F54A
:104C30005842D2F8882002F00302032A09D8DFE89C
:104C400002F00204870601222CE004222AE0082256
:104C500028E0102226E002F5E632D2F8882002F0A1
:104C60000C020C2A0ED8DFE802F0070D0D0D090D1D
:104C70000D0D750D0D0D0B00002213E0042211E047
:104C800008220FE010220DE002F5E432D2F888206D
:104C900002F03002202A5FD01AD8002A5ED0102AF3
:104CA0005ED104225B498B4276D0E069B0F5004FBB
:104CB00000F0A380082A00F20E81DFE812F0DD0088
:104CC000F300DB000C01F6000C010C010C01F900F3
:104CD000302A47D10822E5E702F5E232D2F88820EF
:104CE00002F0C002802A3FD004D8FAB3402A3FD154
:104CF0000422D7E7C02A3DD10822D3E702F5E032EB
:104D0000D2F8882002F44072B2F5007F34D005D882
:104D1000A2B3B2F5807F33D10422C3E7B2F5407F5E
:104D200030D10822BEE702F5C832D2F8882002F45A
:104D30004062B2F5006F27D005D83AB3B2F5806F64
:104D400026D10422AEE7B2F5406F23D10822A9E7AD
:104D50000222A7E70222A5E70222A3E70022A1E799
:104D600010229FE710229DE702229BE7002299E78D
:104D7000102297E7102295E7022293E7002291E79D
:104D800010228FE710228DE702228BE7002289E7AD
:104D9000102287E7102285E7082A00F28C80DFE8DE
:104DA00002F0088A2A8A278A8A8A05004FF400407E
:104DB00003E0FEF739FE00287FD0626802EB420371
:104DC00083427CD8B0EB023F7BD8010E000253082F
:104DD000C0184FF0000341F10001FBF731FAA0F5D4
:104DE0004072124B9A426ED82368D860002055E07A
:104DF000FEF7E8F9DFE70E48DFE7082A65D8DFE8C5
:104E000002F019330564366464641D00084815E037
:104E1000F369FFEF0080004000380140004400408B
:104E200000480040004C004000500040FFFC0F00D4
:104E30000024F400FEF7F8FD002848D0626853080B
:104E400003EB4000B0FBF2F0A0F110024FF6EF735D
:104E50009A423ED883B223F00F03C0F342001843B6
:104E60002368D860002019E0FEF7F0FDE4E7FEF7C4
:104E7000A9F9E1E71B4802E0FEF7D6FD68B36368D5
:104E800000EB5300B0FBF3F0A0F110024FF6EF730C
:104E90009A4224D8236880B2D86000200023636639
:104EA000A36610BDFEF7D2FDE8E7FEF78BF9E5E754
:104EB0004FF40040E3E70120F0E70020EEE7012097
:104EC000ECE70120EAE70120E8E70120E6E700201F
:104ED000E4E70120E2E70120E0E70020DEE701202F
:104EE000DCE700BF0024F400436A13F0010F06D092
:104EF0000268536823F40033816A0B435360436AAA
:104F000013F0020F06D00268536823F48033C16A9D
:104F10000B435360436A13F0040F06D002685368D2
:104F200023F48023016B0B435360436A13F0080F93
:104F300006D00268536823F40043416B0B4353606F
:104F4000436A13F0100F06D00268936823F480536D
:104F5000816B0B439360436A13F0200F06D0026805
:104F6000936823F40053C16B0B439360436A13F0BF
:104F7000400F0AD00268536823F48013016C0B437E
:104F80005360036CB3F5801F0BD0436A13F0800F9E
:104F900006D00268536823F40023816C0B435360EE
:104FA00070470268536823F4C003416C0B4353609D
:104FB000EBE72DE9F84305460F4616469946DDF81E
:104FC00020802C68E46937EA04030CBF4FF0010C21
:104FD0004FF0000CB44553D1B8F1FF3FF1D0FCF7CE
:104FE000D9FFA0EB090040452DD8B8F1000F2AD019
:104FF0002B681A6812F0040FE3D0DA6912F4006F1C
:10500000DFD04FF400621A622A6852E8003F23F4AE
:10501000D07342E800310029F6D12A6802F1080372
:1050200053E8003F23F00103083242E80031002931
:10503000F3D12023AB67EB67C5F88030002385F8F8
:10504000743003201DE02A6852E8003F23F4D07337
:1050500042E800310029F6D12A6802F1080353E83A
:10506000003F23F00103083242E800310029F3D168
:105070002023AB67EB67002385F87430032000E042
:105080000020BDE8F8832DE9F04182B01E46836F11
:10509000202B56D104460D469046002955D0002AB3
:1050A00055D090F87430012B53D0012380F8743020
:1050B0000023C0F8803021238367FCF76BFF07468D
:1050C000A4F85080A4F85280A368B3F5805F05D09F
:1050D0004FF00008002384F8743014E0236913B102
:1050E0004FF00008F6E7A8460025F3E738F8023B42
:1050F0002268C3F308031385B4F8522092B2013A30
:1051000092B2A4F85220B4F852309BB273B1009618
:105110003B46002280212046FFF74BFFD8B9002DE7
:10512000E4D0236815F8012B1A85E5E700963B4685
:10513000002240212046FFF73CFF70B92023A367DF
:1051400000E0022002B0BDE8F0810120FAE7012072
:10515000F8E70220F6E70320F4E70320F2E730B592
:1051600083B004460023C0F88030FCF713FF0546E7
:105170002268126812F0080F0DD123681B6813F023
:10518000040F16D12023A367E3670020206684F86C
:10519000740003B030BD6FF07E43009303460022DD
:1051A0004FF400112046FFF704FF0028E5D003204C
:1051B000EFE76FF07E4300932B4600224FF480010F
:1051C0002046FFF7F6FE0028DCD00320E1E768B3B5
:1051D00010B50446836F03B32423A36722681368C2
:1051E00023F0010313602046FFF7EAFC012813D0E7
:1051F000636ABBB92268536823F490435360226802
:10520000936823F02A0393602268136843F0010334
:1052100013602046FFF7A3FF10BD80F87430FFF73E
:1052200004FAD9E72046FFF75FFEE3E70120704765
:10523000002832D010B50446836F2BB32423A36714
:105240002268136823F0010313602046FFF7B8FCBF
:10525000012818D0636AE3B92268536823F49043A5
:1052600053602268936823F0220393602268936856
:1052700043F0080393602268136843F0010313604E
:105280002046FFF76CFF10BD80F87430FFF7CDF9B2
:10529000D4E72046FFF728FEDEE701207047000034
:1052A0004165A0F85820A0F85A200023436683687F
:1052B000B3F5805F06D0A3B9036973B9FF23A0F8E3
:1052C0005C3014E0036923B940F2FF13A0F85C30AE
:1052D0000DE0FF23A0F85C3009E07F23A0F85C30EC
:1052E00005E0B3F1805F29D00023A0F85C300023F3
:1052F000C0F880302223C367026802F1080353E834
:10530000003F43F00103083242E800310029F3D1A5
:105310008368B3F5805F1BD0154B4366002380F88C
:1053200074300369D3B1026852E8003F43F49073CC
:1053300042E800310029F6D10020704703691BB90B
:105340007F23A0F85C30D2E73F23A0F85C30CEE7A3
:105350000369002BE0D1074B4366DFE7026852E8A0
:10536000003F43F0200342E800310029F6D1E3E793
:10537000C9490008794A000838B5C36F202B1ED1EF
:10538000F9B102B390F87430012B1ED0012380F8DC
:1053900074300023036603680D4CA3420CD05B6895
:1053A00013F4000F08D0046854E8003F43F0806312
:1053B00044E80035002DF6D1FFF772FF00E002202F
:1053C00038BD0120FCE70120FAE70220F8E700BF22
:1053D0000080004090F87430012B13D0012380F836
:1053E0007430026802F1080353E8003F43F40003FD
:1053F000083242E800310029F3D1002380F87430EC
:10540000184670470220704790F87430012B13D073
:10541000012380F87430026802F1080353E8003F6A
:1054200023F40003083242E800310029F3D10023BD
:1054300080F87430184670470220704790F8743036
:10544000012B10D0012380F87430026852E8003F2D
:1054500043F0020342E800310029F6D1002380F82E
:105460007430184670470220704790F87430012B52
:1054700010D0012380F87430026852E8003F23F016
:10548000020342E800310029F6D1002380F874308D
:10549000184670470220704703461D4A904220D0AC
:1054A0004FF6FF70B3F1804F1DD01A4A93421CD0C3
:1054B000194A93421BD0194A93421AD0184A934270
:1054C00019D0184A934218D0174A934217D0174A56
:1054D000934216D0164A934215D0164A934214D0DE
:1054E00070470020DEE70120DFE70220E0E703202D
:1054F000E1E70420E2E70520E3E70620E4E70720F0
:10550000E5E70820E6E70920E7E70A20E8E700BF2B
:10551000002C01400004004000080040000C004046
:1055200000100040001400400034014000400140E1
:10553000004401400048014070B50546064656F853
:10554000100FFFF7A9FF04463046FBF7C1FF002309
:105550000A4A42F82430EB6015F164060CD005F1DC
:10556000B404A64208D0103CA368002BF9D0032253
:10557000214620469847F4E7284670BD980400204D
:10558000F8B504460D460846FFF786FF4FF6FF7351
:10559000984202D023690BB1FEE7FEE704F10C0349
:1055A000224A42F820302561002684F82C602663C8
:1055B0006663A663E66326646664A66484F84C604A
:1055C00084F84D60E4600E23E365266604F110075D
:1055D0003846FBF7B5FE00E00136042E0EDCB51DA3
:1055E00004EB0515EB680435002BF5D003222946A2
:1055F000284698470023AB60EB60EDE70023032BC0
:1056000006DC0022E25404EB43018A800133F6E712
:10561000002363614FF6FF72E261A361236263625C
:105620008023A3623846FEF74FFFF8BD98040020A0
:1056300038B5054600F16402042303E000249460B9
:105640001032013B002BF9DA00232B612846FFF7CB
:1056500097FF284638BD000008B5064B186810B102
:105660000430FEF7FFFD034B586A10B10430FEF71B
:10567000F9FD08BD9804002008B5034B186810B167
:105680000430FEF7EFFD08BD9804002008B5034B79
:10569000586810B10430FEF7E5FD08BD98040020FD
:1056A00008B5034B986810B10430FEF7DBFD08BD68
:1056B0009804002008B5034BD86810B10430FEF7F9
:1056C000D1FD08BD9804002008B5034B186910B13E
:1056D0000430FEF7C7FD08BD9804002008B5034B51
:1056E000586910B10430FEF7BDFD08BD98040020D4
:1056F00008B5034B986910B10430FEF7B3FD08BD3F
:105700009804002008B5034BD86910B10430FEF7A7
:10571000A9FD08BD9804002008B5034BD86910B155
:105720000430FEF79FFD08BD9804002008B5034B28
:10573000186A10B10430FEF795FD08BD98040020EA
:1057400008B5034B986A10B10430FEF78BFD08BD15
:105750009804002048B108B5FBF7F0FD0068C36E5F
:1057600013B16430FBF72EFC08BDFEE708B5FFF768
:10577000F1FF08BD58B110B50246037F013B072B6E
:1057800015D8DFE803F00517140714141415FEE705
:10579000012400E003241046FBF7D0FD0068A31DA0
:1057A00000EB0310043083680BB1FBF70BFC10BD5A
:1057B0000424F0E70224EEE708B5FFF7DBFF08BD9D
:1057C00008B5FFF7D7FF08BD08B503F0E1F908BD3C
:1057D00008B503F0E5F908BD03460D4A1068034417
:1057E000EFF30882934207D80A4A0B49521A9342B0
:1057F00008D2074A13607047084B0C221A604FF01A
:10580000FF307047054B0C221A604FF0FF30704795
:105810000C01002000800120000400006C09002021
:105820004FF0FF3070470020704700207047FEE7C0
:10583000024B16221A604FF0FF3070476C090020AF
:105840000120704703460C4A1068A3B110B51C46EE
:105850000A4B9C4206D00A4B9C4206D0094B9C4204
:1058600006D010BDFEF7F2F8F5E7FEF7DDF8F5E734
:10587000FEF7DAF8F5E770474800002000300140F5
:1058800000380040003C0040002800F077812DE9FE
:10589000F04F85B00E4615461F460446A449C06E1B
:1058A000FBF7ECFC8046A349A06EFBF7E7FC8146C2
:1058B000A149206FFBF7E2FC8246A049606FFBF72D
:1058C000DDFC8346B8F1000F00F0E480B9F1000F71
:1058D00000F0E080BAF1000F00F0DC80494640465D
:1058E000FBF7FCFC804659465046FBF7F7FC814627
:1058F00001464046FBF7F2FC6066B8F1000F00F08D
:10590000C980B9F1000F00F0C580002800F0C28006
:10591000636FB3F1FF3F15D04FF48023A361206084
:105920004FF482736360FFF78DFFB6EB500F0DD31A
:105930000023E3610023A3607DB3022D2DD001235A
:1059400063612CE04FF40073A361E8E7B6EB900FBE
:1059500002D30823E361EDE7B6EBD00F02D31023A7
:10596000E361E7E7B6EB101F02D31823E361E1E739
:10597000B6EB501F02D32023E361DBE7B6EB901FA9
:1059800002D32823E361D5E7B6EBD01F02D330233F
:10599000E361CFE73823E361CCE700236361012DA6
:1059A0003FD9022323610023A3620723E3624FF45C
:1059B000E063E360002F37D180232362002363621A
:1059C00063635B49E06EFBF73BFC5A49A06EFBF753
:1059D00037FC5949206FFBF733FC23693BBB02229C
:1059E000236F13F0800F24D1C3F30311544850F8F0
:1059F000211003F00F03534850F82330012A1AD026
:105A0000022A4ED0CA6893FAA3F3002B65D0B3FAEA
:105A100083F35B00032000FA03F322EA0303CB6065
:105A200020E000232361BEE700232362C6E70122B2
:105A3000D6E70021DDE7C86893FAA3F26AB3B2FAA9
:105A400082F25200032505FA02F220EA020293FADA
:105A5000A3F323B3B3FA83F35B00012000FA03F34B
:105A60001343CB603549606FFBF7EAFB2268364B86
:105A70009A4234D02268354B9A4244D02268344B43
:105A80009A4267D02046FEF77CFB2268136843F0F9
:105A90004003136005B0BDE8F08F2022D1E720233A
:105AA000DAE7C86893FAA3F29AB1B2FA82F2520026
:105AB000032505FA02F220EA020293FAA3F353B196
:105AC000B3FA83F35B00022000FA03F31343CB60C5
:105AD000C8E72022EBE72023F4E7202399E703F52A
